{
  "_format": "hh-sol-artifact-1",
  "contractName": "CosmicBadges",
  "sourceName": "contracts/upgradeable/ERC1155/CosmicBadges.sol",
  "abi": [
    {
      "inputs": [],
      "stateMutability": "nonpayable",
      "type": "constructor"
    },
    {
      "anonymous": false,
      "inputs": [
        {
          "indexed": true,
          "internalType": "address",
          "name": "account",
          "type": "address"
        },
        {
          "indexed": true,
          "internalType": "address",
          "name": "operator",
          "type": "address"
        },
        {
          "indexed": false,
          "internalType": "bool",
          "name": "approved",
          "type": "bool"
        }
      ],
      "name": "ApprovalForAll",
      "type": "event"
    },
    {
      "anonymous": false,
      "inputs": [
        {
          "indexed": false,
          "internalType": "uint8",
          "name": "version",
          "type": "uint8"
        }
      ],
      "name": "Initialized",
      "type": "event"
    },
    {
      "anonymous": false,
      "inputs": [
        {
          "indexed": true,
          "internalType": "uint256",
          "name": "tokenId",
          "type": "uint256"
        },
        {
          "indexed": false,
          "internalType": "uint256",
          "name": "attributeId",
          "type": "uint256"
        },
        {
          "indexed": false,
          "internalType": "string",
          "name": "name",
          "type": "string"
        }
      ],
      "name": "NameUpdated",
      "type": "event"
    },
    {
      "anonymous": false,
      "inputs": [
        {
          "indexed": true,
          "internalType": "uint256",
          "name": "tokenId",
          "type": "uint256"
        },
        {
          "indexed": false,
          "internalType": "uint256[]",
          "name": "attributeIds",
          "type": "uint256[]"
        },
        {
          "indexed": false,
          "internalType": "string[]",
          "name": "names",
          "type": "string[]"
        }
      ],
      "name": "NamesUpdated",
      "type": "event"
    },
    {
      "anonymous": false,
      "inputs": [
        {
          "indexed": false,
          "internalType": "address",
          "name": "account",
          "type": "address"
        }
      ],
      "name": "Paused",
      "type": "event"
    },
    {
      "anonymous": false,
      "inputs": [
        {
          "indexed": true,
          "internalType": "bytes32",
          "name": "role",
          "type": "bytes32"
        },
        {
          "indexed": true,
          "internalType": "bytes32",
          "name": "previousAdminRole",
          "type": "bytes32"
        },
        {
          "indexed": true,
          "internalType": "bytes32",
          "name": "newAdminRole",
          "type": "bytes32"
        }
      ],
      "name": "RoleAdminChanged",
      "type": "event"
    },
    {
      "anonymous": false,
      "inputs": [
        {
          "indexed": true,
          "internalType": "bytes32",
          "name": "role",
          "type": "bytes32"
        },
        {
          "indexed": true,
          "internalType": "address",
          "name": "account",
          "type": "address"
        },
        {
          "indexed": true,
          "internalType": "address",
          "name": "sender",
          "type": "address"
        }
      ],
      "name": "RoleGranted",
      "type": "event"
    },
    {
      "anonymous": false,
      "inputs": [
        {
          "indexed": true,
          "internalType": "bytes32",
          "name": "role",
          "type": "bytes32"
        },
        {
          "indexed": true,
          "internalType": "address",
          "name": "account",
          "type": "address"
        },
        {
          "indexed": true,
          "internalType": "address",
          "name": "sender",
          "type": "address"
        }
      ],
      "name": "RoleRevoked",
      "type": "event"
    },
    {
      "anonymous": false,
      "inputs": [
        {
          "indexed": true,
          "internalType": "address",
          "name": "operator",
          "type": "address"
        },
        {
          "indexed": true,
          "internalType": "address",
          "name": "from",
          "type": "address"
        },
        {
          "indexed": true,
          "internalType": "address",
          "name": "to",
          "type": "address"
        },
        {
          "indexed": false,
          "internalType": "uint256[]",
          "name": "ids",
          "type": "uint256[]"
        },
        {
          "indexed": false,
          "internalType": "uint256[]",
          "name": "values",
          "type": "uint256[]"
        }
      ],
      "name": "TransferBatch",
      "type": "event"
    },
    {
      "anonymous": false,
      "inputs": [
        {
          "indexed": true,
          "internalType": "address",
          "name": "operator",
          "type": "address"
        },
        {
          "indexed": true,
          "internalType": "address",
          "name": "from",
          "type": "address"
        },
        {
          "indexed": true,
          "internalType": "address",
          "name": "to",
          "type": "address"
        },
        {
          "indexed": false,
          "internalType": "uint256",
          "name": "id",
          "type": "uint256"
        },
        {
          "indexed": false,
          "internalType": "uint256",
          "name": "value",
          "type": "uint256"
        }
      ],
      "name": "TransferSingle",
      "type": "event"
    },
    {
      "anonymous": false,
      "inputs": [
        {
          "indexed": false,
          "internalType": "string",
          "name": "value",
          "type": "string"
        },
        {
          "indexed": true,
          "internalType": "uint256",
          "name": "id",
          "type": "uint256"
        }
      ],
      "name": "URI",
      "type": "event"
    },
    {
      "anonymous": false,
      "inputs": [
        {
          "indexed": false,
          "internalType": "address",
          "name": "account",
          "type": "address"
        }
      ],
      "name": "Unpaused",
      "type": "event"
    },
    {
      "anonymous": false,
      "inputs": [
        {
          "indexed": true,
          "internalType": "uint256",
          "name": "tokenId",
          "type": "uint256"
        },
        {
          "indexed": false,
          "internalType": "uint256",
          "name": "attributeId",
          "type": "uint256"
        },
        {
          "indexed": false,
          "internalType": "uint256",
          "name": "value",
          "type": "uint256"
        }
      ],
      "name": "ValueUpdated",
      "type": "event"
    },
    {
      "anonymous": false,
      "inputs": [
        {
          "indexed": true,
          "internalType": "uint256",
          "name": "tokenId",
          "type": "uint256"
        },
        {
          "indexed": false,
          "internalType": "uint256[]",
          "name": "attributeIds",
          "type": "uint256[]"
        },
        {
          "indexed": false,
          "internalType": "uint256[]",
          "name": "values",
          "type": "uint256[]"
        }
      ],
      "name": "ValuesUpdated",
      "type": "event"
    },
    {
      "inputs": [],
      "name": "ADMIN_ROLE",
      "outputs": [
        {
          "internalType": "bytes32",
          "name": "",
          "type": "bytes32"
        }
      ],
      "stateMutability": "view",
      "type": "function"
    },
    {
      "inputs": [],
      "name": "CONTRACT_ROLE",
      "outputs": [
        {
          "internalType": "bytes32",
          "name": "",
          "type": "bytes32"
        }
      ],
      "stateMutability": "view",
      "type": "function"
    },
    {
      "inputs": [],
      "name": "DEFAULT_ADMIN_ROLE",
      "outputs": [
        {
          "internalType": "bytes32",
          "name": "",
          "type": "bytes32"
        }
      ],
      "stateMutability": "view",
      "type": "function"
    },
    {
      "inputs": [],
      "name": "MINTER_ROLE",
      "outputs": [
        {
          "internalType": "bytes32",
          "name": "",
          "type": "bytes32"
        }
      ],
      "stateMutability": "view",
      "type": "function"
    },
    {
      "inputs": [],
      "name": "SOULBOUND_WHITELIST_ROLE",
      "outputs": [
        {
          "internalType": "bytes32",
          "name": "",
          "type": "bytes32"
        }
      ],
      "stateMutability": "view",
      "type": "function"
    },
    {
      "inputs": [],
      "name": "activeIds",
      "outputs": [
        {
          "internalType": "uint256[]",
          "name": "",
          "type": "uint256[]"
        }
      ],
      "stateMutability": "view",
      "type": "function"
    },
    {
      "inputs": [
        {
          "internalType": "address",
          "name": "from",
          "type": "address"
        },
        {
          "internalType": "uint256[]",
          "name": "ids",
          "type": "uint256[]"
        },
        {
          "internalType": "uint256[]",
          "name": "amounts",
          "type": "uint256[]"
        }
      ],
      "name": "adminBurnBatch",
      "outputs": [],
      "stateMutability": "nonpayable",
      "type": "function"
    },
    {
      "inputs": [
        {
          "internalType": "address",
          "name": "account",
          "type": "address"
        },
        {
          "internalType": "uint256",
          "name": "id",
          "type": "uint256"
        }
      ],
      "name": "balanceOf",
      "outputs": [
        {
          "internalType": "uint256",
          "name": "",
          "type": "uint256"
        }
      ],
      "stateMutability": "view",
      "type": "function"
    },
    {
      "inputs": [
        {
          "internalType": "address[]",
          "name": "accounts",
          "type": "address[]"
        },
        {
          "internalType": "uint256[]",
          "name": "ids",
          "type": "uint256[]"
        }
      ],
      "name": "balanceOfBatch",
      "outputs": [
        {
          "internalType": "uint256[]",
          "name": "",
          "type": "uint256[]"
        }
      ],
      "stateMutability": "view",
      "type": "function"
    },
    {
      "inputs": [
        {
          "internalType": "uint256",
          "name": "tokenId",
          "type": "uint256"
        },
        {
          "internalType": "uint256[]",
          "name": "attributeIds",
          "type": "uint256[]"
        }
      ],
      "name": "batchGetAttribute",
      "outputs": [
        {
          "internalType": "uint256[]",
          "name": "",
          "type": "uint256[]"
        }
      ],
      "stateMutability": "view",
      "type": "function"
    },
    {
      "inputs": [
        {
          "internalType": "uint256",
          "name": "tokenId",
          "type": "uint256"
        },
        {
          "internalType": "uint256[]",
          "name": "attributeIds",
          "type": "uint256[]"
        },
        {
          "internalType": "uint256[]",
          "name": "values",
          "type": "uint256[]"
        }
      ],
      "name": "batchSetAttribute",
      "outputs": [],
      "stateMutability": "nonpayable",
      "type": "function"
    },
    {
      "inputs": [
        {
          "internalType": "uint256",
          "name": "tokenId",
          "type": "uint256"
        },
        {
          "internalType": "uint256[]",
          "name": "attributeIds",
          "type": "uint256[]"
        },
        {
          "internalType": "string[]",
          "name": "names",
          "type": "string[]"
        }
      ],
      "name": "batchSetAttributeName",
      "outputs": [],
      "stateMutability": "nonpayable",
      "type": "function"
    },
    {
      "inputs": [
        {
          "internalType": "uint256[]",
          "name": "tokenIds",
          "type": "uint256[]"
        }
      ],
      "name": "batchTokenURI",
      "outputs": [
        {
          "internalType": "string[]",
          "name": "",
          "type": "string[]"
        }
      ],
      "stateMutability": "view",
      "type": "function"
    },
    {
      "inputs": [
        {
          "internalType": "uint256[]",
          "name": "tokenIds",
          "type": "uint256[]"
        }
      ],
      "name": "batchUri",
      "outputs": [
        {
          "internalType": "string[]",
          "name": "",
          "type": "string[]"
        }
      ],
      "stateMutability": "view",
      "type": "function"
    },
    {
      "inputs": [
        {
          "internalType": "address",
          "name": "account",
          "type": "address"
        },
        {
          "internalType": "uint256",
          "name": "id",
          "type": "uint256"
        },
        {
          "internalType": "uint256",
          "name": "value",
          "type": "uint256"
        }
      ],
      "name": "burn",
      "outputs": [],
      "stateMutability": "nonpayable",
      "type": "function"
    },
    {
      "inputs": [
        {
          "internalType": "address",
          "name": "account",
          "type": "address"
        },
        {
          "internalType": "uint256[]",
          "name": "ids",
          "type": "uint256[]"
        },
        {
          "internalType": "uint256[]",
          "name": "values",
          "type": "uint256[]"
        }
      ],
      "name": "burnBatch",
      "outputs": [],
      "stateMutability": "nonpayable",
      "type": "function"
    },
    {
      "inputs": [
        {
          "internalType": "uint256",
          "name": "id",
          "type": "uint256"
        }
      ],
      "name": "exists",
      "outputs": [
        {
          "internalType": "bool",
          "name": "",
          "type": "bool"
        }
      ],
      "stateMutability": "view",
      "type": "function"
    },
    {
      "inputs": [
        {
          "internalType": "uint256",
          "name": "tokenId",
          "type": "uint256"
        },
        {
          "internalType": "uint256",
          "name": "attributeId",
          "type": "uint256"
        }
      ],
      "name": "getAttribute",
      "outputs": [
        {
          "internalType": "uint256",
          "name": "",
          "type": "uint256"
        }
      ],
      "stateMutability": "view",
      "type": "function"
    },
    {
      "inputs": [],
      "name": "getBlacklisted",
      "outputs": [
        {
          "internalType": "address[]",
          "name": "",
          "type": "address[]"
        }
      ],
      "stateMutability": "view",
      "type": "function"
    },
    {
      "inputs": [
        {
          "internalType": "bytes32",
          "name": "role",
          "type": "bytes32"
        }
      ],
      "name": "getRoleAdmin",
      "outputs": [
        {
          "internalType": "bytes32",
          "name": "",
          "type": "bytes32"
        }
      ],
      "stateMutability": "view",
      "type": "function"
    },
    {
      "inputs": [
        {
          "internalType": "bytes32",
          "name": "role",
          "type": "bytes32"
        },
        {
          "internalType": "uint256",
          "name": "index",
          "type": "uint256"
        }
      ],
      "name": "getRoleMember",
      "outputs": [
        {
          "internalType": "address",
          "name": "",
          "type": "address"
        }
      ],
      "stateMutability": "view",
      "type": "function"
    },
    {
      "inputs": [
        {
          "internalType": "bytes32",
          "name": "role",
          "type": "bytes32"
        }
      ],
      "name": "getRoleMemberCount",
      "outputs": [
        {
          "internalType": "uint256",
          "name": "",
          "type": "uint256"
        }
      ],
      "stateMutability": "view",
      "type": "function"
    },
    {
      "inputs": [
        {
          "internalType": "bytes32",
          "name": "role",
          "type": "bytes32"
        },
        {
          "internalType": "address",
          "name": "account",
          "type": "address"
        }
      ],
      "name": "grantRole",
      "outputs": [],
      "stateMutability": "nonpayable",
      "type": "function"
    },
    {
      "inputs": [
        {
          "internalType": "bytes32",
          "name": "role",
          "type": "bytes32"
        },
        {
          "internalType": "address",
          "name": "account",
          "type": "address"
        }
      ],
      "name": "hasRole",
      "outputs": [
        {
          "internalType": "bool",
          "name": "",
          "type": "bool"
        }
      ],
      "stateMutability": "view",
      "type": "function"
    },
    {
      "inputs": [],
      "name": "imageBaseURI",
      "outputs": [
        {
          "internalType": "string",
          "name": "",
          "type": "string"
        }
      ],
      "stateMutability": "view",
      "type": "function"
    },
    {
      "inputs": [],
      "name": "initialize",
      "outputs": [],
      "stateMutability": "nonpayable",
      "type": "function"
    },
    {
      "inputs": [
        {
          "internalType": "address",
          "name": "account",
          "type": "address"
        },
        {
          "internalType": "address",
          "name": "operator",
          "type": "address"
        }
      ],
      "name": "isApprovedForAll",
      "outputs": [
        {
          "internalType": "bool",
          "name": "",
          "type": "bool"
        }
      ],
      "stateMutability": "view",
      "type": "function"
    },
    {
      "inputs": [
        {
          "internalType": "address",
          "name": "user",
          "type": "address"
        }
      ],
      "name": "isBlacklisted",
      "outputs": [
        {
          "internalType": "bool",
          "name": "",
          "type": "bool"
        }
      ],
      "stateMutability": "view",
      "type": "function"
    },
    {
      "inputs": [
        {
          "internalType": "address",
          "name": "account",
          "type": "address"
        },
        {
          "internalType": "uint256",
          "name": "id",
          "type": "uint256"
        },
        {
          "internalType": "uint256",
          "name": "amount",
          "type": "uint256"
        },
        {
          "internalType": "bytes",
          "name": "data",
          "type": "bytes"
        }
      ],
      "name": "mint",
      "outputs": [],
      "stateMutability": "nonpayable",
      "type": "function"
    },
    {
      "inputs": [
        {
          "internalType": "address",
          "name": "to",
          "type": "address"
        },
        {
          "internalType": "uint256[]",
          "name": "ids",
          "type": "uint256[]"
        },
        {
          "internalType": "uint256[]",
          "name": "amounts",
          "type": "uint256[]"
        },
        {
          "internalType": "bytes",
          "name": "data",
          "type": "bytes"
        }
      ],
      "name": "mintBatch",
      "outputs": [],
      "stateMutability": "nonpayable",
      "type": "function"
    },
    {
      "inputs": [
        {
          "internalType": "uint256",
          "name": "id",
          "type": "uint256"
        },
        {
          "internalType": "address[]",
          "name": "to",
          "type": "address[]"
        },
        {
          "internalType": "uint256[]",
          "name": "amounts",
          "type": "uint256[]"
        }
      ],
      "name": "mintBatchOf",
      "outputs": [],
      "stateMutability": "nonpayable",
      "type": "function"
    },
    {
      "inputs": [],
      "name": "name",
      "outputs": [
        {
          "internalType": "string",
          "name": "",
          "type": "string"
        }
      ],
      "stateMutability": "view",
      "type": "function"
    },
    {
      "inputs": [],
      "name": "pause",
      "outputs": [],
      "stateMutability": "nonpayable",
      "type": "function"
    },
    {
      "inputs": [],
      "name": "paused",
      "outputs": [
        {
          "internalType": "bool",
          "name": "",
          "type": "bool"
        }
      ],
      "stateMutability": "view",
      "type": "function"
    },
    {
      "inputs": [
        {
          "internalType": "bytes32",
          "name": "role",
          "type": "bytes32"
        },
        {
          "internalType": "address",
          "name": "account",
          "type": "address"
        }
      ],
      "name": "renounceRole",
      "outputs": [],
      "stateMutability": "nonpayable",
      "type": "function"
    },
    {
      "inputs": [
        {
          "internalType": "bytes32",
          "name": "role",
          "type": "bytes32"
        },
        {
          "internalType": "address",
          "name": "account",
          "type": "address"
        }
      ],
      "name": "revokeRole",
      "outputs": [],
      "stateMutability": "nonpayable",
      "type": "function"
    },
    {
      "inputs": [
        {
          "internalType": "address",
          "name": "from",
          "type": "address"
        },
        {
          "internalType": "address",
          "name": "to",
          "type": "address"
        },
        {
          "internalType": "uint256[]",
          "name": "ids",
          "type": "uint256[]"
        },
        {
          "internalType": "uint256[]",
          "name": "amounts",
          "type": "uint256[]"
        },
        {
          "internalType": "bytes",
          "name": "data",
          "type": "bytes"
        }
      ],
      "name": "safeBatchTransferFrom",
      "outputs": [],
      "stateMutability": "nonpayable",
      "type": "function"
    },
    {
      "inputs": [
        {
          "internalType": "address",
          "name": "from",
          "type": "address"
        },
        {
          "internalType": "address",
          "name": "to",
          "type": "address"
        },
        {
          "internalType": "uint256",
          "name": "id",
          "type": "uint256"
        },
        {
          "internalType": "uint256",
          "name": "amount",
          "type": "uint256"
        },
        {
          "internalType": "bytes",
          "name": "data",
          "type": "bytes"
        }
      ],
      "name": "safeTransferFrom",
      "outputs": [],
      "stateMutability": "nonpayable",
      "type": "function"
    },
    {
      "inputs": [
        {
          "internalType": "address",
          "name": "operator",
          "type": "address"
        },
        {
          "internalType": "bool",
          "name": "approved",
          "type": "bool"
        }
      ],
      "name": "setApprovalForAll",
      "outputs": [],
      "stateMutability": "nonpayable",
      "type": "function"
    },
    {
      "inputs": [
        {
          "internalType": "uint256",
          "name": "tokenId",
          "type": "uint256"
        },
        {
          "internalType": "uint256",
          "name": "attributeId",
          "type": "uint256"
        },
        {
          "internalType": "uint256",
          "name": "value",
          "type": "uint256"
        }
      ],
      "name": "setAttribute",
      "outputs": [],
      "stateMutability": "nonpayable",
      "type": "function"
    },
    {
      "inputs": [
        {
          "internalType": "uint256",
          "name": "tokenId",
          "type": "uint256"
        },
        {
          "internalType": "uint256",
          "name": "attributeId",
          "type": "uint256"
        },
        {
          "internalType": "string",
          "name": "name",
          "type": "string"
        }
      ],
      "name": "setAttributeName",
      "outputs": [],
      "stateMutability": "nonpayable",
      "type": "function"
    },
    {
      "inputs": [
        {
          "internalType": "uint256",
          "name": "tokenId",
          "type": "uint256"
        }
      ],
      "name": "setSoulbound",
      "outputs": [],
      "stateMutability": "nonpayable",
      "type": "function"
    },
    {
      "inputs": [
        {
          "internalType": "bytes4",
          "name": "interfaceId",
          "type": "bytes4"
        }
      ],
      "name": "supportsInterface",
      "outputs": [
        {
          "internalType": "bool",
          "name": "",
          "type": "bool"
        }
      ],
      "stateMutability": "view",
      "type": "function"
    },
    {
      "inputs": [],
      "name": "symbol",
      "outputs": [
        {
          "internalType": "string",
          "name": "",
          "type": "string"
        }
      ],
      "stateMutability": "view",
      "type": "function"
    },
    {
      "inputs": [
        {
          "internalType": "uint256",
          "name": "tokenId",
          "type": "uint256"
        }
      ],
      "name": "tokenURI",
      "outputs": [
        {
          "internalType": "string",
          "name": "",
          "type": "string"
        }
      ],
      "stateMutability": "view",
      "type": "function"
    },
    {
      "inputs": [
        {
          "internalType": "address",
          "name": "owner",
          "type": "address"
        }
      ],
      "name": "tokensOf",
      "outputs": [
        {
          "internalType": "uint256[]",
          "name": "tokenIds",
          "type": "uint256[]"
        },
        {
          "internalType": "uint256[]",
          "name": "balances",
          "type": "uint256[]"
        }
      ],
      "stateMutability": "view",
      "type": "function"
    },
    {
      "inputs": [
        {
          "internalType": "uint256",
          "name": "id",
          "type": "uint256"
        }
      ],
      "name": "totalSupply",
      "outputs": [
        {
          "internalType": "uint256",
          "name": "",
          "type": "uint256"
        }
      ],
      "stateMutability": "view",
      "type": "function"
    },
    {
      "inputs": [],
      "name": "unpause",
      "outputs": [],
      "stateMutability": "nonpayable",
      "type": "function"
    },
    {
      "inputs": [
        {
          "internalType": "uint256",
          "name": "tokenId",
          "type": "uint256"
        }
      ],
      "name": "unsetSoulbound",
      "outputs": [],
      "stateMutability": "nonpayable",
      "type": "function"
    },
    {
      "inputs": [
        {
          "internalType": "uint256",
          "name": "tokenId",
          "type": "uint256"
        }
      ],
      "name": "uri",
      "outputs": [
        {
          "internalType": "string",
          "name": "",
          "type": "string"
        }
      ],
      "stateMutability": "view",
      "type": "function"
    }
  ],
  "bytecode": "0x60806040523480156200001157600080fd5b506200001c62000022565b620000e4565b600054610100900460ff16156200008f5760405162461bcd60e51b815260206004820152602760248201527f496e697469616c697a61626c653a20636f6e747261637420697320696e697469604482015266616c697a696e6760c81b606482015260840160405180910390fd5b60005460ff9081161015620000e2576000805460ff191660ff9081179091556040519081527f7f26b83ff96e1f2b6a682f133852f6798a09c465da95921460cefb38474024989060200160405180910390a15b565b614b9180620000f46000396000f3fe608060405234801561001057600080fd5b50600436106102d55760003560e01c806387be85d311610182578063c385ce25116100e9578063d5391393116100a2578063f242432a1161007c578063f242432a14610699578063f5298aca146106ac578063fd5eea4e146106bf578063fe575a87146106d257600080fd5b8063d539139314610635578063d547741f1461064a578063e985e9c51461065d57600080fd5b8063c385ce25146105c1578063c87b56dd146105d4578063ca15c873146105e7578063cd955e5c146105fa578063ce3675ad1461060d578063d179191a1461062257600080fd5b8063a17d79ec1161013b578063a17d79ec14610563578063a217fddf14610578578063a22cb46514610580578063b0fe60d514610593578063b198ce46146105a6578063bd85b039146105ae57600080fd5b806387be85d3146104e45780639010d07c146104f757806391d148541461052257806395d89b411461053557806396c45e2f1461053d578063994a95be1461055057600080fd5b80634f558e7911610241578063731133e9116101fa57806377645839116101d457806377645839146104b95780637d7a6d13146104c15780638129fc1c146104d45780638456cb59146104dc57600080fd5b8063731133e91461047e57806375b238fc146104915780637685945e146104a657600080fd5b80634f558e79146103f957806358870da11461040c5780635a3f26721461041f5780635c975abb146104405780636b20c4541461044b5780636d94f13a1461045e57600080fd5b8063248a9ca311610293578063248a9ca3146103755780632eb2c2d6146103985780632f2ff15d146103ab57806336568abe146103be5780633f4ba83a146103d15780634e1273f4146103d957600080fd5b8062fdd58e146102da57806301ffc9a71461030057806303fe46ab1461032357806306fdde03146103385780630e89341c1461034d5780631f7fdffa14610360575b600080fd5b6102ed6102e83660046137e9565b6106e5565b6040519081526020015b60405180910390f35b61031361030e366004613829565b610780565b60405190151581526020016102f7565b6102ed600080516020614b3c83398151915281565b61034061078b565b6040516102f7919061389e565b61034061035b3660046138b1565b61081a565b61037361036e366004613a13565b610972565b005b6102ed6103833660046138b1565b60009081526097602052604090206001015490565b6103736103a6366004613aab565b61099d565b6103736103b9366004613b54565b6109e2565b6103736103cc366004613b54565b610a0c565b610373610a8a565b6103ec6103e7366004613bed565b610aad565b6040516102f79190613c8b565b6103136104073660046138b1565b610bd6565b61037361041a366004613c9e565b610be9565b61043261042d366004613ced565b610c6a565b6040516102f7929190613d08565b60fb5460ff16610313565b610373610459366004613d36565b610d2f565b61047161046c366004613d9f565b610d72565b6040516102f79190613e28565b61037361048c366004613e3b565b610d7d565b6102ed600080516020614b1c83398151915281565b6102ed6104b4366004613e8f565b610da1565b610340610dc1565b6103736104cf366004613eb1565b610dcf565b610373610e93565b610373611094565b6103736104f2366004613ee4565b6110b4565b61050a610505366004613e8f565b611137565b6040516001600160a01b0390911681526020016102f7565b610313610530366004613b54565b61114f565b61034061117a565b61037361054b3660046138b1565b611188565b6103ec61055e366004613f23565b6111c5565b6102ed600080516020614afc83398151915281565b6102ed600081565b61037361058e366004613f5f565b611288565b6104716105a1366004613d9f565b611293565b6103ec61134b565b6102ed6105bc3660046138b1565b6113e9565b6103736105cf3660046138b1565b611400565b6103406105e23660046138b1565b61143c565b6102ed6105f53660046138b1565b611447565b610373610608366004613d36565b61145e565b610615611487565b6040516102f79190613f9b565b610373610630366004613fe8565b611499565b6102ed600080516020614adc83398151915281565b610373610658366004613b54565b61156e565b61031361066b3660046140d3565b6001600160a01b03918216600090815260666020908152604080832093909416825291909152205460ff1690565b6103736106a73660046140fd565b611593565b6103736106ba366004614161565b6115d8565b6103736106cd366004614194565b61161b565b6103136106e0366004613ced565b611686565b60006001600160a01b0383166107555760405162461bcd60e51b815260206004820152602a60248201527f455243313135353a2061646472657373207a65726f206973206e6f742061207660448201526930b634b21037bbb732b960b11b60648201526084015b60405180910390fd5b5060008181526065602090815260408083206001600160a01b03861684529091529020545b92915050565b600061077a82611694565b61028b8054610799906141c0565b80601f01602080910402602001604051908101604052809291908181526020018280546107c5906141c0565b80156108125780601f106107e757610100808354040283529160200191610812565b820191906000526020600020905b8154815290600101906020018083116107f557829003601f168201915b505050505081565b6060600061082a836103e86116b9565b9050600061083a846103e96116b9565b905060608061084886611768565b81519194509250600091506001600160401b0381111561086a5761086a6138ca565b6040519080825280602002602001820160405280156108bf57816020015b6108ac60405180606001604052806060815260200160608152602001600081525090565b8152602001906001900390816108885790505b50905060005b835181101561095a5760405180606001604052808483815181106108eb576108eb6141fb565b6020026020010151815260200160405180602001604052806000815250815260200185838151811061091f5761091f6141fb565b602002602001015181525082828151811061093c5761093c6141fb565b6020026020010181905250808061095290614227565b9150506108c5565b50610967878686846119cf565b979650505050505050565b600080516020614adc83398151915261098a81611a1b565b61099685858585611a25565b5050505050565b6001600160a01b0385163314806109b957506109b9853361066b565b6109d55760405162461bcd60e51b815260040161074c90614242565b6109968585858585611b80565b6000828152609760205260409020600101546109fd81611a1b565b610a078383611d2d565b505050565b6001600160a01b0381163314610a7c5760405162461bcd60e51b815260206004820152602f60248201527f416363657373436f6e74726f6c3a2063616e206f6e6c792072656e6f756e636560448201526e103937b632b9903337b91039b2b63360891b606482015260840161074c565b610a868282611d4f565b5050565b600080516020614b1c833981519152610aa281611a1b565b610aaa611d71565b50565b60608151835114610b125760405162461bcd60e51b815260206004820152602960248201527f455243313135353a206163636f756e747320616e6420696473206c656e677468604482015268040dad2e6dac2e8c6d60bb1b606482015260840161074c565b600083516001600160401b03811115610b2d57610b2d6138ca565b604051908082528060200260200182016040528015610b56578160200160208202803683370190505b50905060005b8451811015610bce57610ba1858281518110610b7a57610b7a6141fb565b6020026020010151858381518110610b9457610b946141fb565b60200260200101516106e5565b828281518110610bb357610bb36141fb565b6020908102919091010152610bc781614227565b9050610b5c565b509392505050565b600080610be2836113e9565b1192915050565b600080516020614b3c833981519152610c0181611a1b565b60008481526101f86020908152604080832086845282529091208351610c2992850190613734565b50837ffdbb964a9a1d2ac903ed7ebf85795be6728c27e96237552b2805596c759e08818484604051610c5c929190614291565b60405180910390a250505050565b6001600160a01b0381166000908152610164602052604090206060908190610c9190611dc3565b915081516001600160401b03811115610cac57610cac6138ca565b604051908082528060200260200182016040528015610cd5578160200160208202803683370190505b50905060005b8251811015610d2957610cfa84848381518110610b9457610b946141fb565b828281518110610d0c57610d0c6141fb565b602090810291909101015280610d2181614227565b915050610cdb565b50915091565b6001600160a01b038316331480610d4b5750610d4b833361066b565b610d675760405162461bcd60e51b815260040161074c90614242565b610a07838383611dd0565b606061077a82611293565b600080516020614adc833981519152610d9581611a1b565b61099685858585611f6f565b60008281526101f760205260408120610dba908361205a565b9392505050565b6102288054610799906141c0565b600080516020614b3c833981519152610de781611a1b565b60005b8351811015610e6057610e4d848281518110610e0857610e086141fb565b6020026020010151848381518110610e2257610e226141fb565b60200260200101516101f760008981526020019081526020016000206120669092919063ffffffff16565b5080610e5881614227565b915050610dea565b50837f383bcccfd5e9b61afe7e6832ca2201fe34d7766a9bbf90fb7152082ddbcd342b8484604051610c5c929190613d08565b600054610100900460ff1615808015610eb35750600054600160ff909116105b80610ecd5750303b158015610ecd575060005460ff166001145b610f305760405162461bcd60e51b815260206004820152602e60248201527f496e697469616c697a61626c653a20636f6e747261637420697320616c72656160448201526d191e481a5b9a5d1a585b1a5e995960921b606482015260840161074c565b6000805460ff191660011790558015610f53576000805461ff0019166101001790555b610f6b60405180602001604052806000815250612073565b610f736120a3565b610f7b6120cc565b610f836120a3565b610f8b6120a3565b610f936120a3565b610f9b6120fb565b610fbc6040518060600160405280602f8152602001614aad602f913961215a565b610fc4612195565b6110116040518060400160405280600d81526020016c436f736d69632042616467657360981b8152506040518060400160405280600681526020016542414447455360d01b8152506121dc565b61101c600033611d2d565b611034600080516020614b1c83398151915233611d2d565b61104c600080516020614adc83398151915233611d2d565b8015610aaa576000805461ff0019169055604051600181527f7f26b83ff96e1f2b6a682f133852f6798a09c465da95921460cefb38474024989060200160405180910390a150565b600080516020614b1c8339815191526110ac81611a1b565b610aaa61222c565b600080516020614adc8339815191526110cc81611a1b565b60005b8351811015610996576111258482815181106110ed576110ed6141fb565b602002602001015186858481518110611108576111086141fb565b602002602001015160405180602001604052806000815250611f6f565b8061112f81614227565b9150506110cf565b600082815260c960205260408120610dba9083612269565b60009182526097602090815260408084206001600160a01b0393909316845291905290205460ff1690565b61028c8054610799906141c0565b600080516020614b1c8339815191526111a081611a1b565b600882901c600090815261025a602052604090208054600160ff85161b191690555050565b6060600082516001600160401b038111156111e2576111e26138ca565b60405190808252806020026020018201604052801561120b578160200160208202803683370190505b50905060005b8351811015610bce5761125984828151811061122f5761122f6141fb565b60200260200101516101f7600088815260200190815260200160002061205a90919063ffffffff16565b82828151811061126b5761126b6141fb565b60209081029190910101528061128081614227565b915050611211565b610a86338383612275565b6060600082516001600160401b038111156112b0576112b06138ca565b6040519080825280602002602001820160405280156112e357816020015b60608152602001906001900390816112ce5790505b50905060005b835181101561134457611314848281518110611307576113076141fb565b602002602001015161143c565b828281518110611326576113266141fb565b6020026020010181905250808061133c90614227565b9150506112e9565b5092915050565b6060600061135a61015f612356565b90506000816001600160401b03811115611376576113766138ca565b60405190808252806020026020018201604052801561139f578160200160208202803683370190505b50905060005b82811015611344576113b961015f82612361565b508282815181106113cc576113cc6141fb565b6020908102919091010152806113e181614227565b9150506113a5565b6000806113f861015f8461237f565b949350505050565b600080516020614b1c83398151915261141881611a1b565b600882901c600090815261025a602052604090208054600160ff85161b1790555050565b606061077a8261081a565b600081815260c96020526040812061077a9061238e565b600080516020614b1c83398151915261147681611a1b565b611481848484611dd0565b50505050565b6060611494610193611dc3565b905090565b600080516020614b3c8339815191526114b181611a1b565b60005b835181101561153b578281815181106114cf576114cf6141fb565b60200260200101516101f8600087815260200190815260200160002060008684815181106114ff576114ff6141fb565b602002602001015181526020019081526020016000209080519060200190611528929190613734565b508061153381614227565b9150506114b4565b50837f9d69ed3cc764cf4f579cfc28312dded7bb202f17cc77aa4d0eb3f8bbaecd88e38484604051610c5c9291906142aa565b60008281526097602052604090206001015461158981611a1b565b610a078383611d4f565b6001600160a01b0385163314806115af57506115af853361066b565b6115cb5760405162461bcd60e51b815260040161074c90614242565b6109968585858585612398565b6001600160a01b0383163314806115f457506115f4833361066b565b6116105760405162461bcd60e51b815260040161074c90614242565b610a078383836124d4565b600080516020614b3c83398151915261163381611a1b565b60008481526101f76020526040902061164d908484612066565b50604080518481526020810184905285917f5cb4c5f05283d5a84da3f9f1b0fe8b00d7ea8e1fb833812b52114799bdf1acc79101610c5c565b600061077a610193836125f0565b60006001600160e01b03198216635a05180f60e01b148061077a575061077a82612612565b60008281526101f86020908152604080832084845290915290208054606091906116e2906141c0565b80601f016020809104026020016040519081016040528092919081815260200182805461170e906141c0565b801561175b5780601f106117305761010080835404028352916020019161175b565b820191906000526020600020905b81548152906001019060200180831161173e57829003601f168201915b5050505050905092915050565b6060806060600061178b6101f76000878152602001908152602001600020612356565b90506000816001600160401b038111156117a7576117a76138ca565b6040519080825280602002602001820160405280156117d0578160200160208202803683370190505b5090506000826001600160401b038111156117ed576117ed6138ca565b604051908082528060200260200182016040528015611816578160200160208202803683370190505b5090506000836001600160401b03811115611833576118336138ca565b60405190808252806020026020018201604052801561186657816020015b60608152602001906001900390816118515790505b50905060005b848110156119c05760008981526101f76020526040902061188d9082612361565b85838151811061189f5761189f6141fb565b602002602001018584815181106118b8576118b86141fb565b60200260200101828152508281525050506101f860008a815260200190815260200160002060008583815181106118f1576118f16141fb565b602002602001015181526020019081526020016000208054611912906141c0565b80601f016020809104026020016040519081016040528092919081815260200182805461193e906141c0565b801561198b5780601f106119605761010080835404028352916020019161198b565b820191906000526020600020905b81548152906001019060200180831161196e57829003601f168201915b50505050508282815181106119a2576119a26141fb565b602002602001018190525080806119b890614227565b91505061186c565b50919790965090945092505050565b606060006119de868686612637565b905060006119eb846126a1565b90508181604051602001611a009291906142eb565b60405160208183030381529060405292505050949350505050565b610aaa8133612834565b6001600160a01b038416611a4b5760405162461bcd60e51b815260040161074c90614338565b8151835114611a6c5760405162461bcd60e51b815260040161074c90614379565b33611a7c81600087878787612898565b60005b8451811015611b1857838181518110611a9a57611a9a6141fb565b602002602001015160656000878481518110611ab857611ab86141fb565b602002602001015181526020019081526020016000206000886001600160a01b03166001600160a01b031681526020019081526020016000206000828254611b0091906143c1565b90915550819050611b1081614227565b915050611a7f565b50846001600160a01b031660006001600160a01b0316826001600160a01b03167f4a39dc06d4c0dbc64b70af90fd698a233a518aa5d07e595d983b8c0526c8f7fb8787604051611b69929190613d08565b60405180910390a4610996816000878787876129a0565b8151835114611ba15760405162461bcd60e51b815260040161074c90614379565b6001600160a01b038416611bc75760405162461bcd60e51b815260040161074c906143d9565b33611bd6818787878787612898565b60005b8451811015611cbf576000858281518110611bf657611bf66141fb565b602002602001015190506000858381518110611c1457611c146141fb565b60209081029190910181015160008481526065835260408082206001600160a01b038e168352909352919091205490915081811015611c655760405162461bcd60e51b815260040161074c9061441e565b60008381526065602090815260408083206001600160a01b038e8116855292528083208585039055908b16825281208054849290611ca49084906143c1565b9250508190555050505080611cb890614227565b9050611bd9565b50846001600160a01b0316866001600160a01b0316826001600160a01b03167f4a39dc06d4c0dbc64b70af90fd698a233a518aa5d07e595d983b8c0526c8f7fb8787604051611d0f929190613d08565b60405180910390a4611d258187878787876129a0565b505050505050565b611d378282612b0b565b600082815260c960205260409020610a079082612b91565b611d598282612ba6565b600082815260c960205260409020610a079082612c0d565b611d79612c22565b60fb805460ff191690557f5db9ee0a495bf2e6ff9c91a7834c1ba4fdd244a5e8aa4e537bd38aeae4b073aa335b6040516001600160a01b03909116815260200160405180910390a1565b60606000610dba83612c6b565b6001600160a01b038316611df65760405162461bcd60e51b815260040161074c90614468565b8051825114611e175760405162461bcd60e51b815260040161074c90614379565b6000339050611e3a81856000868660405180602001604052806000815250612898565b60005b8351811015611f02576000848281518110611e5a57611e5a6141fb565b602002602001015190506000848381518110611e7857611e786141fb565b60209081029190910181015160008481526065835260408082206001600160a01b038c168352909352919091205490915081811015611ec95760405162461bcd60e51b815260040161074c906144ab565b60009283526065602090815260408085206001600160a01b038b1686529091529092209103905580611efa81614227565b915050611e3d565b5060006001600160a01b0316846001600160a01b0316826001600160a01b03167f4a39dc06d4c0dbc64b70af90fd698a233a518aa5d07e595d983b8c0526c8f7fb8686604051611f53929190613d08565b60405180910390a4604080516020810190915260009052611481565b6001600160a01b038416611f955760405162461bcd60e51b815260040161074c90614338565b336000611fa185612cc7565b90506000611fae85612cc7565b9050611fbf83600089858589612898565b60008681526065602090815260408083206001600160a01b038b16845290915281208054879290611ff19084906143c1565b909155505060408051878152602081018790526001600160a01b03808a1692600092918716917fc3d58168c5ae7397731d063d5bbf3d657854427343f4c083240f7aacaa2d0f62910160405180910390a461205183600089898989612d12565b50505050505050565b6000610dba8383612ddc565b60006113f8848484612e4c565b600054610100900460ff1661209a5760405162461bcd60e51b815260040161074c906144ef565b610aaa81612e69565b600054610100900460ff166120ca5760405162461bcd60e51b815260040161074c906144ef565b565b600054610100900460ff166120f35760405162461bcd60e51b815260040161074c906144ef565b6120ca612e99565b600054610100900460ff166121225760405162461bcd60e51b815260040161074c906144ef565b61212a6120a3565b612142600080516020614b1c83398151915233611d2d565b6120ca600080516020614afc83398151915233611d2d565b600054610100900460ff166121815760405162461bcd60e51b815260040161074c906144ef565b8051610a8690610228906020840190613734565b600054610100900460ff166121bc5760405162461bcd60e51b815260040161074c906144ef565b6121c46120a3565b6120ca600080516020614b3c83398151915233611d2d565b600054610100900460ff166122035760405162461bcd60e51b815260040161074c906144ef565b81516122179061028b906020850190613734565b508051610a079061028c906020840190613734565b612234612ecc565b60fb805460ff191660011790557f62e78cea01bee320cd4e420270b5ea74000d11b0c9f74754ebdbfc544b05a258611da63390565b6000610dba8383612f12565b816001600160a01b0316836001600160a01b031614156122e95760405162461bcd60e51b815260206004820152602960248201527f455243313135353a2073657474696e6720617070726f76616c20737461747573604482015268103337b91039b2b63360b91b606482015260840161074c565b6001600160a01b03838116600081815260666020908152604080832094871680845294825291829020805460ff191686151590811790915591519182527f17307eab39ab6107e8899845ad3d59bd9653f200f220920489ca2b5937696c31910160405180910390a3505050565b600061077a82612f3c565b60008080806123708686612f47565b909450925050505b9250929050565b60008080806123708686612f72565b600061077a825490565b6001600160a01b0384166123be5760405162461bcd60e51b815260040161074c906143d9565b3360006123ca85612cc7565b905060006123d785612cc7565b90506123e7838989858589612898565b60008681526065602090815260408083206001600160a01b038c1684529091529020548581101561242a5760405162461bcd60e51b815260040161074c9061441e565b60008781526065602090815260408083206001600160a01b038d8116855292528083208985039055908a168252812080548892906124699084906143c1565b909155505060408051888152602081018890526001600160a01b03808b16928c821692918816917fc3d58168c5ae7397731d063d5bbf3d657854427343f4c083240f7aacaa2d0f62910160405180910390a46124c9848a8a8a8a8a612d12565b505050505050505050565b6001600160a01b0383166124fa5760405162461bcd60e51b815260040161074c90614468565b33600061250684612cc7565b9050600061251384612cc7565b905061253383876000858560405180602001604052806000815250612898565b60008581526065602090815260408083206001600160a01b038a168452909152902054848110156125765760405162461bcd60e51b815260040161074c906144ab565b60008681526065602090815260408083206001600160a01b038b81168086529184528285208a8703905582518b81529384018a90529092908816917fc3d58168c5ae7397731d063d5bbf3d657854427343f4c083240f7aacaa2d0f62910160405180910390a4604080516020810190915260009052612051565b6001600160a01b03811660009081526001830160205260408120541515610dba565b60006001600160e01b03198216637965db0b60e01b148061077a575061077a82612fac565b6060600061022861264786612ffc565b60405160200161265892919061453a565b60405160208183030381529060405290508361267386612ffc565b848360405160200161268894939291906145d8565b6040516020818303038152906040529150509392505050565b60408051602081019091526000808252606091905b835181101561280b576000600185516126cf91906146bd565b82146126f457604051806040016040528060018152602001600b60fa1b815250612705565b604051806020016040528060008152505b9050600085838151811061271b5761271b6141fb565b6020026020010151602001515160001461277157858381518110612741576127416141fb565b60200260200101516020015160405160200161275d91906146d4565b604051602081830303815290604052612782565b604051806020016040528060008152505b9050600084878581518110612799576127996141fb565b602002602001015160000151836127cc8a88815181106127bb576127bb6141fb565b602002602001015160400151612ffc565b866040516020016127e195949392919061471a565b6040516020818303038152906040529050809450505050808061280390614227565b9150506126b6565b508060405160200161281d91906147d5565b604051602081830303815290604052915050919050565b61283e828261114f565b610a8657612856816001600160a01b031660146130f9565b6128618360206130f9565b604051602001612872929190614817565b60408051601f198184030181529082905262461bcd60e51b825261074c9160040161389e565b6128a0612ecc565b82858560005b8351811015612991576128dd8482815181106128c4576128c46141fb565b602002602001015161025a61329490919063ffffffff16565b15806128f057506001600160a01b038316155b8061290257506001600160a01b038216155b806129205750612920600080516020614afc8339815191528461114f565b8061293e575061293e600080516020614afc8339815191528361114f565b61297f5760405162461bcd60e51b8152602060048201526012602482015271151bdad95b881a5cc81cdbdd5b189bdd5b9960721b604482015260640161074c565b8061298981614227565b9150506128a6565b506124c98989898989896132b8565b6001600160a01b0384163b15611d255760405163bc197c8160e01b81526001600160a01b0385169063bc197c81906129e4908990899088908890889060040161488c565b602060405180830381600087803b1580156129fe57600080fd5b505af1925050508015612a2e575060408051601f3d908101601f19168201909252612a2b918101906148de565b60015b612adb57612a3a6148fb565b806308c379a01415612a745750612a4f614917565b80612a5a5750612a76565b8060405162461bcd60e51b815260040161074c919061389e565b505b60405162461bcd60e51b815260206004820152603460248201527f455243313135353a207472616e7366657220746f206e6f6e20455243313135356044820152732932b1b2b4bb32b91034b6b83632b6b2b73a32b960611b606482015260840161074c565b6001600160e01b0319811663bc197c8160e01b146120515760405162461bcd60e51b815260040161074c906149a0565b612b15828261114f565b610a865760008281526097602090815260408083206001600160a01b03851684529091529020805460ff19166001179055612b4d3390565b6001600160a01b0316816001600160a01b0316837f2f8788117e7eff1d82e926ec794901d17c78024a50270940304540a733656f0d60405160405180910390a45050565b6000610dba836001600160a01b0384166134ee565b612bb0828261114f565b15610a865760008281526097602090815260408083206001600160a01b0385168085529252808320805460ff1916905551339285917ff6391f5c32d9c69d2a47ea670b442974b53935d1edc7fd64eb21e047a839171b9190a45050565b6000610dba836001600160a01b03841661353d565b60fb5460ff166120ca5760405162461bcd60e51b815260206004820152601460248201527314185d5cd8589b194e881b9bdd081c185d5cd95960621b604482015260640161074c565b606081600001805480602002602001604051908101604052809291908181526020018280548015612cbb57602002820191906000526020600020905b815481526020019060010190808311612ca7575b50505050509050919050565b60408051600180825281830190925260609160009190602080830190803683370190505090508281600081518110612d0157612d016141fb565b602090810291909101015292915050565b6001600160a01b0384163b15611d255760405163f23a6e6160e01b81526001600160a01b0385169063f23a6e6190612d5690899089908890889088906004016149e8565b602060405180830381600087803b158015612d7057600080fd5b505af1925050508015612da0575060408051601f3d908101601f19168201909252612d9d918101906148de565b60015b612dac57612a3a6148fb565b6001600160e01b0319811663f23a6e6160e01b146120515760405162461bcd60e51b815260040161074c906149a0565b600081815260028301602052604081205480151580612e005750612e008484613630565b610dba5760405162461bcd60e51b815260206004820152601e60248201527f456e756d657261626c654d61703a206e6f6e6578697374656e74206b65790000604482015260640161074c565b600082815260028401602052604081208290556113f8848461363c565b600054610100900460ff16612e905760405162461bcd60e51b815260040161074c906144ef565b610aaa81613648565b600054610100900460ff16612ec05760405162461bcd60e51b815260040161074c906144ef565b60fb805460ff19169055565b60fb5460ff16156120ca5760405162461bcd60e51b815260206004820152601060248201526f14185d5cd8589b194e881c185d5cd95960821b604482015260640161074c565b6000826000018281548110612f2957612f296141fb565b9060005260206000200154905092915050565b600061077a8261238e565b60008080612f558585612269565b600081815260029690960160205260409095205494959350505050565b6000818152600283016020526040812054819080612fa157612f948585613630565b9250600091506123789050565b600192509050612378565b60006001600160e01b03198216636cdb3d1360e11b1480612fdd57506001600160e01b031982166303a24d0760e21b145b8061077a57506301ffc9a760e01b6001600160e01b031983161461077a565b6060816130205750506040805180820190915260018152600360fc1b602082015290565b8160005b811561304a578061303481614227565b91506130439050600a83614a38565b9150613024565b6000816001600160401b03811115613064576130646138ca565b6040519080825280601f01601f19166020018201604052801561308e576020820181803683370190505b5090505b84156113f8576130a36001836146bd565b91506130b0600a86614a4c565b6130bb9060306143c1565b60f81b8183815181106130d0576130d06141fb565b60200101906001600160f81b031916908160001a9053506130f2600a86614a38565b9450613092565b60606000613108836002614a60565b6131139060026143c1565b6001600160401b0381111561312a5761312a6138ca565b6040519080825280601f01601f191660200182016040528015613154576020820181803683370190505b509050600360fc1b8160008151811061316f5761316f6141fb565b60200101906001600160f81b031916908160001a905350600f60fb1b8160018151811061319e5761319e6141fb565b60200101906001600160f81b031916908160001a90535060006131c2846002614a60565b6131cd9060016143c1565b90505b6001811115613245576f181899199a1a9b1b9c1cb0b131b232b360811b85600f1660108110613201576132016141fb565b1a60f81b828281518110613217576132176141fb565b60200101906001600160f81b031916908160001a90535060049490941c9361323e81614a7f565b90506131d0565b508315610dba5760405162461bcd60e51b815260206004820181905260248201527f537472696e67733a20686578206c656e67746820696e73756666696369656e74604482015260640161074c565b600881901c600090815260208390526040902054600160ff83161b16151592915050565b6001600160a01b0385166133695760005b83518110156133675760006133028583815181106132e9576132e96141fb565b602002602001015161015f61237f90919063ffffffff16565b90508091505061335485838151811061331d5761331d6141fb565b6020026020010151858481518110613337576133376141fb565b60200260200101518361334a91906143c1565b61015f9190612066565b50508061336090614227565b90506132c9565b505b6001600160a01b03841661345f5760005b835181101561345d576000848281518110613397576133976141fb565b6020026020010151905060008483815181106133b5576133b56141fb565b6020026020010151905060006133d68361015f61205a90919063ffffffff16565b9050818110156134395760405162461bcd60e51b815260206004820152602860248201527f455243313135353a206275726e20616d6f756e74206578636565647320746f74604482015267616c537570706c7960c01b606482015260840161074c565b61344861015f84848403612066565b505050508061345690614227565b905061337a565b505b60005b83518110156134db576134a886858381518110613481576134816141fb565b602002602001015185848151811061349b5761349b6141fb565b602002602001015161365b565b6134cb858583815181106134be576134be6141fb565b60200260200101516136ad565b6134d481614227565b9050613462565b506134e5856136ef565b611d25846136ef565b60008181526001830160205260408120546135355750815460018181018455600084815260208082209093018490558454848252828601909352604090209190915561077a565b50600061077a565b600081815260018301602052604081205480156136265760006135616001836146bd565b8554909150600090613575906001906146bd565b90508181146135da576000866000018281548110613595576135956141fb565b90600052602060002001549050808760000184815481106135b8576135b86141fb565b6000918252602080832090910192909255918252600188019052604090208390555b85548690806135eb576135eb614a96565b60019003818190600052602060002001600090559055856001016000868152602001908152602001600020600090556001935050505061077a565b600091505061077a565b6000610dba8383613710565b6000610dba83836134ee565b8051610a86906067906020840190613734565b6001600160a01b03831661366e57505050565b600061367a84846106e5565b905061368682826146bd565b611481576001600160a01b0384166000908152610164602052604090206109969084613728565b6001600160a01b0382166136bf575050565b6001600160a01b0382166000908152610164602052604090206136e2908261363c565b50610a0761016283612b91565b60606136fa82610c6a565b508051909150610a8657610a0761016283612c0d565b60008181526001830160205260408120541515610dba565b6000610dba838361353d565b828054613740906141c0565b90600052602060002090601f01602090048101928261376257600085556137a8565b82601f1061377b57805160ff19168380011785556137a8565b828001600101855582156137a8579182015b828111156137a857825182559160200191906001019061378d565b506137b49291506137b8565b5090565b5b808211156137b457600081556001016137b9565b80356001600160a01b03811681146137e457600080fd5b919050565b600080604083850312156137fc57600080fd5b613805836137cd565b946020939093013593505050565b6001600160e01b031981168114610aaa57600080fd5b60006020828403121561383b57600080fd5b8135610dba81613813565b60005b83811015613861578181015183820152602001613849565b838111156114815750506000910152565b6000815180845261388a816020860160208601613846565b601f01601f19169290920160200192915050565b602081526000610dba6020830184613872565b6000602082840312156138c357600080fd5b5035919050565b634e487b7160e01b600052604160045260246000fd5b601f8201601f191681016001600160401b0381118282101715613905576139056138ca565b6040525050565b60006001600160401b03821115613925576139256138ca565b5060051b60200190565b600082601f83011261394057600080fd5b8135602061394d8261390c565b60405161395a82826138e0565b83815260059390931b850182019282810191508684111561397a57600080fd5b8286015b84811015613995578035835291830191830161397e565b509695505050505050565b600082601f8301126139b157600080fd5b81356001600160401b038111156139ca576139ca6138ca565b6040516139e1601f8301601f1916602001826138e0565b8181528460208386010111156139f657600080fd5b816020850160208301376000918101602001919091529392505050565b60008060008060808587031215613a2957600080fd5b613a32856137cd565b935060208501356001600160401b0380821115613a4e57600080fd5b613a5a8883890161392f565b94506040870135915080821115613a7057600080fd5b613a7c8883890161392f565b93506060870135915080821115613a9257600080fd5b50613a9f878288016139a0565b91505092959194509250565b600080600080600060a08688031215613ac357600080fd5b613acc866137cd565b9450613ada602087016137cd565b935060408601356001600160401b0380821115613af657600080fd5b613b0289838a0161392f565b94506060880135915080821115613b1857600080fd5b613b2489838a0161392f565b93506080880135915080821115613b3a57600080fd5b50613b47888289016139a0565b9150509295509295909350565b60008060408385031215613b6757600080fd5b82359150613b77602084016137cd565b90509250929050565b600082601f830112613b9157600080fd5b81356020613b9e8261390c565b604051613bab82826138e0565b83815260059390931b8501820192828101915086841115613bcb57600080fd5b8286015b8481101561399557613be0816137cd565b8352918301918301613bcf565b60008060408385031215613c0057600080fd5b82356001600160401b0380821115613c1757600080fd5b613c2386838701613b80565b93506020850135915080821115613c3957600080fd5b50613c468582860161392f565b9150509250929050565b600081518084526020808501945080840160005b83811015613c8057815187529582019590820190600101613c64565b509495945050505050565b602081526000610dba6020830184613c50565b600080600060608486031215613cb357600080fd5b833592506020840135915060408401356001600160401b03811115613cd757600080fd5b613ce3868287016139a0565b9150509250925092565b600060208284031215613cff57600080fd5b610dba826137cd565b604081526000613d1b6040830185613c50565b8281036020840152613d2d8185613c50565b95945050505050565b600080600060608486031215613d4b57600080fd5b613d54846137cd565b925060208401356001600160401b0380821115613d7057600080fd5b613d7c8783880161392f565b93506040860135915080821115613d9257600080fd5b50613ce38682870161392f565b600060208284031215613db157600080fd5b81356001600160401b03811115613dc757600080fd5b6113f88482850161392f565b600081518084526020808501808196508360051b8101915082860160005b85811015613e1b578284038952613e09848351613872565b98850198935090840190600101613df1565b5091979650505050505050565b602081526000610dba6020830184613dd3565b60008060008060808587031215613e5157600080fd5b613e5a856137cd565b9350602085013592506040850135915060608501356001600160401b03811115613e8357600080fd5b613a9f878288016139a0565b60008060408385031215613ea257600080fd5b50508035926020909101359150565b600080600060608486031215613ec657600080fd5b8335925060208401356001600160401b0380821115613d7057600080fd5b600080600060608486031215613ef957600080fd5b8335925060208401356001600160401b0380821115613f1757600080fd5b613d7c87838801613b80565b60008060408385031215613f3657600080fd5b8235915060208301356001600160401b03811115613f5357600080fd5b613c468582860161392f565b60008060408385031215613f7257600080fd5b613f7b836137cd565b915060208301358015158114613f9057600080fd5b809150509250929050565b6020808252825182820181905260009190848201906040850190845b81811015613fdc5783516001600160a01b031683529284019291840191600101613fb7565b50909695505050505050565b600080600060608486031215613ffd57600080fd5b833592506020808501356001600160401b038082111561401c57600080fd5b6140288883890161392f565b9450604087013591508082111561403e57600080fd5b818701915087601f83011261405257600080fd5b813561405d8161390c565b60405161406a82826138e0565b82815260059290921b840185019185810191508a83111561408a57600080fd5b8585015b838110156140c2578035858111156140a65760008081fd5b6140b48d89838a01016139a0565b84525091860191860161408e565b508096505050505050509250925092565b600080604083850312156140e657600080fd5b6140ef836137cd565b9150613b77602084016137cd565b600080600080600060a0868803121561411557600080fd5b61411e866137cd565b945061412c602087016137cd565b9350604086013592506060860135915060808601356001600160401b0381111561415557600080fd5b613b47888289016139a0565b60008060006060848603121561417657600080fd5b61417f846137cd565b95602085013595506040909401359392505050565b6000806000606084860312156141a957600080fd5b505081359360208301359350604090920135919050565b600181811c908216806141d457607f821691505b602082108114156141f557634e487b7160e01b600052602260045260246000fd5b50919050565b634e487b7160e01b600052603260045260246000fd5b634e487b7160e01b600052601160045260246000fd5b600060001982141561423b5761423b614211565b5060010190565b6020808252602f908201527f455243313135353a2063616c6c6572206973206e6f7420746f6b656e206f776e60408201526e195c881b9bdc88185c1c1c9bdd9959608a1b606082015260800190565b8281526040602082015260006113f86040830184613872565b6040815260006142bd6040830185613c50565b8281036020840152613d2d8185613dd3565b600081516142e1818560208601613846565b9290920192915050565b607b60f81b815260008351614307816001850160208801613846565b83519083019061431e816001840160208801613846565b607d60f81b60019290910191820152600201949350505050565b60208082526021908201527f455243313135353a206d696e7420746f20746865207a65726f206164647265736040820152607360f81b606082015260800190565b60208082526028908201527f455243313135353a2069647320616e6420616d6f756e7473206c656e677468206040820152670dad2e6dac2e8c6d60c31b606082015260800190565b600082198211156143d4576143d4614211565b500190565b60208082526025908201527f455243313135353a207472616e7366657220746f20746865207a65726f206164604082015264647265737360d81b606082015260800190565b6020808252602a908201527f455243313135353a20696e73756666696369656e742062616c616e636520666f60408201526939103a3930b739b332b960b11b606082015260800190565b60208082526023908201527f455243313135353a206275726e2066726f6d20746865207a65726f206164647260408201526265737360e81b606082015260800190565b60208082526024908201527f455243313135353a206275726e20616d6f756e7420657863656564732062616c604082015263616e636560e01b606082015260800190565b6020808252602b908201527f496e697469616c697a61626c653a20636f6e7472616374206973206e6f74206960408201526a6e697469616c697a696e6760a81b606082015260800190565b600080845481600182811c91508083168061455657607f831692505b602080841082141561457657634e487b7160e01b86526022600452602486fd5b81801561458a576001811461459b576145c8565b60ff198616895284890196506145c8565b60008b81526020902060005b868110156145c05781548b8201529085019083016145a7565b505084890196505b505050505050613d2d81856142cf565b67113730b6b2911d1160c11b815284516000906145fc816008850160208a01613846565b6201116160ed1b60089184019182018190526a113a37b5b2b724b2111d1160a91b600b8301528651614635816016850160208b01613846565b601692019182018190526f113232b9b1b934b83a34b7b7111d101160811b6019830152855161466b816029850160208a01613846565b6029920191820152691134b6b0b3b2911d101160b11b602c8201528351614699816036840160208801613846565b6146b16036828401016201116160ed1b815260030190565b98975050505050505050565b6000828210156146cf576146cf614211565b500390565b703d913234b9b83630bcafba3cb832911d1160791b81528151600090614701816011850160208701613846565b61088b60f21b6011939091019283015250601301919050565b6000865161472c818460208b01613846565b6e3d913a3930b4ba2fba3cb832911d1160891b908301908152865161475881600f840160208b01613846565b61088b60f21b600f9290910191820152855161477b816011840160208a01613846565b67113b30b63ab2911d60c11b6011929091019182015284516147a4816019840160208901613846565b607d60f81b6019929091019182015283516147c681601a840160208801613846565b01601a01979650505050505050565b6d2261747472696275746573223a5b60901b815281516000906147ff81600e850160208701613846565b605d60f81b600e939091019283015250600f01919050565b7f416363657373436f6e74726f6c3a206163636f756e742000000000000000000081526000835161484f816017850160208801613846565b7001034b99036b4b9b9b4b733903937b6329607d1b6017918401918201528351614880816028840160208801613846565b01602801949350505050565b6001600160a01b0386811682528516602082015260a0604082018190526000906148b890830186613c50565b82810360608401526148ca8186613c50565b905082810360808401526146b18185613872565b6000602082840312156148f057600080fd5b8151610dba81613813565b600060033d11156149145760046000803e5060005160e01c5b90565b600060443d10156149255790565b6040516003193d81016004833e81513d6001600160401b03816024840111818411171561495457505050505090565b828501915081518181111561496c5750505050505090565b843d87010160208285010111156149865750505050505090565b614995602082860101876138e0565b509095945050505050565b60208082526028908201527f455243313135353a204552433131353552656365697665722072656a656374656040820152676420746f6b656e7360c01b606082015260800190565b6001600160a01b03868116825285166020820152604081018490526060810183905260a06080820181905260009061096790830184613872565b634e487b7160e01b600052601260045260246000fd5b600082614a4757614a47614a22565b500490565b600082614a5b57614a5b614a22565b500690565b6000816000190483118215151615614a7a57614a7a614211565b500290565b600081614a8e57614a8e614211565b506000190190565b634e487b7160e01b600052603160045260246000fdfe68747470733a2f2f696d616765732e636f736d6963756e6976657273652e696f2f636f736d69632d6261646765732f9f2df0fed2c77648de5860a4cc508cd0818c85b8b8a1ab4ceeef8d981c8956a6f01ee2eb8c5679535f9dfef3543570e280865ec756856c5772fe3e6718c5c074a49807205ce4d355092ef5a8a18f56e8913cf4a201fbe287825b095693c21775364d3d7565c7a8300c96fd53e065d19b65848d7b23b3191adcd55621c744223ca26469706673582212206b5046ba50e33905974407825c2c09880613555c2d6345eaa0c69c59ce5d556864736f6c63430008090033",
  "linkReferences": {},
  "deployedLinkReferences": {}
}