{
  "_format": "hh-sol-artifact-1",
  "contractName": "TradescrowRouterUpgradeable",
  "sourceName": "contracts/TradescrowRouterUpgradeable.sol",
  "abi": [
    {
      "inputs": [],
      "stateMutability": "nonpayable",
      "type": "constructor"
    },
    {
      "anonymous": false,
      "inputs": [
        {
          "indexed": false,
          "internalType": "uint8",
          "name": "version",
          "type": "uint8"
        }
      ],
      "name": "Initialized",
      "type": "event"
    },
    {
      "anonymous": false,
      "inputs": [
        {
          "indexed": true,
          "internalType": "address",
          "name": "_asset",
          "type": "address"
        },
        {
          "indexed": false,
          "internalType": "uint256",
          "name": "amount",
          "type": "uint256"
        }
      ],
      "name": "Recovered",
      "type": "event"
    },
    {
      "anonymous": false,
      "inputs": [
        {
          "indexed": true,
          "internalType": "bytes32",
          "name": "role",
          "type": "bytes32"
        },
        {
          "indexed": true,
          "internalType": "bytes32",
          "name": "previousAdminRole",
          "type": "bytes32"
        },
        {
          "indexed": true,
          "internalType": "bytes32",
          "name": "newAdminRole",
          "type": "bytes32"
        }
      ],
      "name": "RoleAdminChanged",
      "type": "event"
    },
    {
      "anonymous": false,
      "inputs": [
        {
          "indexed": true,
          "internalType": "bytes32",
          "name": "role",
          "type": "bytes32"
        },
        {
          "indexed": true,
          "internalType": "address",
          "name": "account",
          "type": "address"
        },
        {
          "indexed": true,
          "internalType": "address",
          "name": "sender",
          "type": "address"
        }
      ],
      "name": "RoleGranted",
      "type": "event"
    },
    {
      "anonymous": false,
      "inputs": [
        {
          "indexed": true,
          "internalType": "bytes32",
          "name": "role",
          "type": "bytes32"
        },
        {
          "indexed": true,
          "internalType": "address",
          "name": "account",
          "type": "address"
        },
        {
          "indexed": true,
          "internalType": "address",
          "name": "sender",
          "type": "address"
        }
      ],
      "name": "RoleRevoked",
      "type": "event"
    },
    {
      "anonymous": false,
      "inputs": [
        {
          "indexed": true,
          "internalType": "address",
          "name": "_tokenIn",
          "type": "address"
        },
        {
          "indexed": true,
          "internalType": "address",
          "name": "_tokenOut",
          "type": "address"
        },
        {
          "indexed": false,
          "internalType": "uint256",
          "name": "_amountIn",
          "type": "uint256"
        },
        {
          "indexed": false,
          "internalType": "uint256",
          "name": "_amountOut",
          "type": "uint256"
        }
      ],
      "name": "TradescrowSwap",
      "type": "event"
    },
    {
      "anonymous": false,
      "inputs": [
        {
          "indexed": false,
          "internalType": "address[]",
          "name": "_newAdapters",
          "type": "address[]"
        }
      ],
      "name": "UpdatedAdapters",
      "type": "event"
    },
    {
      "anonymous": false,
      "inputs": [
        {
          "indexed": false,
          "internalType": "uint256",
          "name": "_oldMinFee",
          "type": "uint256"
        },
        {
          "indexed": false,
          "internalType": "uint256",
          "name": "_newMinFee",
          "type": "uint256"
        }
      ],
      "name": "UpdatedMinFee",
      "type": "event"
    },
    {
      "anonymous": false,
      "inputs": [
        {
          "indexed": false,
          "internalType": "address",
          "name": "_oldFeeClaimer",
          "type": "address"
        },
        {
          "indexed": false,
          "internalType": "address",
          "name": "_newFeeClaimer",
          "type": "address"
        }
      ],
      "name": "UpdatedTreasury",
      "type": "event"
    },
    {
      "anonymous": false,
      "inputs": [
        {
          "indexed": false,
          "internalType": "address[]",
          "name": "_newTrustedTokens",
          "type": "address[]"
        }
      ],
      "name": "UpdatedTrustedTokens",
      "type": "event"
    },
    {
      "inputs": [],
      "name": "DEFAULT_ADMIN_ROLE",
      "outputs": [
        {
          "internalType": "bytes32",
          "name": "",
          "type": "bytes32"
        }
      ],
      "stateMutability": "view",
      "type": "function"
    },
    {
      "inputs": [],
      "name": "FEE_DENOMINATOR",
      "outputs": [
        {
          "internalType": "uint256",
          "name": "",
          "type": "uint256"
        }
      ],
      "stateMutability": "view",
      "type": "function"
    },
    {
      "inputs": [],
      "name": "MIN_FEE",
      "outputs": [
        {
          "internalType": "uint256",
          "name": "",
          "type": "uint256"
        }
      ],
      "stateMutability": "view",
      "type": "function"
    },
    {
      "inputs": [],
      "name": "NAME",
      "outputs": [
        {
          "internalType": "string",
          "name": "",
          "type": "string"
        }
      ],
      "stateMutability": "view",
      "type": "function"
    },
    {
      "inputs": [],
      "name": "NATIVE",
      "outputs": [
        {
          "internalType": "address",
          "name": "",
          "type": "address"
        }
      ],
      "stateMutability": "view",
      "type": "function"
    },
    {
      "inputs": [],
      "name": "TREASURY",
      "outputs": [
        {
          "internalType": "address",
          "name": "",
          "type": "address"
        }
      ],
      "stateMutability": "view",
      "type": "function"
    },
    {
      "inputs": [],
      "name": "UPDATER_ROLE",
      "outputs": [
        {
          "internalType": "bytes32",
          "name": "",
          "type": "bytes32"
        }
      ],
      "stateMutability": "view",
      "type": "function"
    },
    {
      "inputs": [],
      "name": "WNATIVE",
      "outputs": [
        {
          "internalType": "address",
          "name": "",
          "type": "address"
        }
      ],
      "stateMutability": "view",
      "type": "function"
    },
    {
      "inputs": [],
      "name": "adaptersCount",
      "outputs": [
        {
          "internalType": "uint256",
          "name": "",
          "type": "uint256"
        }
      ],
      "stateMutability": "view",
      "type": "function"
    },
    {
      "inputs": [
        {
          "internalType": "address",
          "name": "adapter",
          "type": "address"
        }
      ],
      "name": "addAdapter",
      "outputs": [],
      "stateMutability": "nonpayable",
      "type": "function"
    },
    {
      "inputs": [
        {
          "internalType": "address[]",
          "name": "adapters",
          "type": "address[]"
        }
      ],
      "name": "addAdapters",
      "outputs": [],
      "stateMutability": "nonpayable",
      "type": "function"
    },
    {
      "inputs": [
        {
          "internalType": "address",
          "name": "trustedToken",
          "type": "address"
        }
      ],
      "name": "addTrustedToken",
      "outputs": [],
      "stateMutability": "nonpayable",
      "type": "function"
    },
    {
      "inputs": [
        {
          "internalType": "address[]",
          "name": "trustedTokens",
          "type": "address[]"
        }
      ],
      "name": "addTrustedTokens",
      "outputs": [],
      "stateMutability": "nonpayable",
      "type": "function"
    },
    {
      "inputs": [
        {
          "internalType": "uint256",
          "name": "_amountIn",
          "type": "uint256"
        },
        {
          "internalType": "address",
          "name": "_tokenIn",
          "type": "address"
        },
        {
          "internalType": "address",
          "name": "_tokenOut",
          "type": "address"
        },
        {
          "internalType": "uint256",
          "name": "_maxSteps",
          "type": "uint256"
        }
      ],
      "name": "findBestPath",
      "outputs": [
        {
          "components": [
            {
              "internalType": "uint256[]",
              "name": "amounts",
              "type": "uint256[]"
            },
            {
              "internalType": "address[]",
              "name": "adapters",
              "type": "address[]"
            },
            {
              "internalType": "address[]",
              "name": "path",
              "type": "address[]"
            }
          ],
          "internalType": "struct TradescrowRouterUpgradeable.FormattedOffer",
          "name": "",
          "type": "tuple"
        }
      ],
      "stateMutability": "view",
      "type": "function"
    },
    {
      "inputs": [
        {
          "internalType": "uint256",
          "name": "_amountIn",
          "type": "uint256"
        },
        {
          "internalType": "address",
          "name": "_tokenIn",
          "type": "address"
        },
        {
          "internalType": "address",
          "name": "_tokenOut",
          "type": "address"
        },
        {
          "internalType": "uint256",
          "name": "_maxSteps",
          "type": "uint256"
        },
        {
          "internalType": "uint256",
          "name": "_gasPrice",
          "type": "uint256"
        }
      ],
      "name": "findBestPathWithGas",
      "outputs": [
        {
          "components": [
            {
              "internalType": "uint256[]",
              "name": "amounts",
              "type": "uint256[]"
            },
            {
              "internalType": "address[]",
              "name": "adapters",
              "type": "address[]"
            },
            {
              "internalType": "address[]",
              "name": "path",
              "type": "address[]"
            },
            {
              "internalType": "uint256",
              "name": "gasEstimate",
              "type": "uint256"
            }
          ],
          "internalType": "struct TradescrowRouterUpgradeable.FormattedOfferWithGas",
          "name": "",
          "type": "tuple"
        }
      ],
      "stateMutability": "view",
      "type": "function"
    },
    {
      "inputs": [
        {
          "internalType": "bytes32",
          "name": "role",
          "type": "bytes32"
        }
      ],
      "name": "getRoleAdmin",
      "outputs": [
        {
          "internalType": "bytes32",
          "name": "",
          "type": "bytes32"
        }
      ],
      "stateMutability": "view",
      "type": "function"
    },
    {
      "inputs": [
        {
          "internalType": "bytes32",
          "name": "role",
          "type": "bytes32"
        },
        {
          "internalType": "address",
          "name": "account",
          "type": "address"
        }
      ],
      "name": "grantRole",
      "outputs": [],
      "stateMutability": "nonpayable",
      "type": "function"
    },
    {
      "inputs": [
        {
          "internalType": "bytes32",
          "name": "role",
          "type": "bytes32"
        },
        {
          "internalType": "address",
          "name": "account",
          "type": "address"
        }
      ],
      "name": "hasRole",
      "outputs": [
        {
          "internalType": "bool",
          "name": "",
          "type": "bool"
        }
      ],
      "stateMutability": "view",
      "type": "function"
    },
    {
      "inputs": [],
      "name": "initialize",
      "outputs": [],
      "stateMutability": "nonpayable",
      "type": "function"
    },
    {
      "inputs": [
        {
          "internalType": "uint256",
          "name": "_amountIn",
          "type": "uint256"
        },
        {
          "internalType": "address",
          "name": "_tokenIn",
          "type": "address"
        },
        {
          "internalType": "address",
          "name": "_tokenOut",
          "type": "address"
        },
        {
          "internalType": "uint8",
          "name": "_index",
          "type": "uint8"
        }
      ],
      "name": "queryAdapter",
      "outputs": [
        {
          "internalType": "uint256",
          "name": "",
          "type": "uint256"
        }
      ],
      "stateMutability": "view",
      "type": "function"
    },
    {
      "inputs": [
        {
          "internalType": "uint256",
          "name": "_amountIn",
          "type": "uint256"
        },
        {
          "internalType": "address",
          "name": "_tokenIn",
          "type": "address"
        },
        {
          "internalType": "address",
          "name": "_tokenOut",
          "type": "address"
        },
        {
          "internalType": "uint8[]",
          "name": "_options",
          "type": "uint8[]"
        }
      ],
      "name": "queryNoSplit",
      "outputs": [
        {
          "components": [
            {
              "internalType": "address",
              "name": "adapter",
              "type": "address"
            },
            {
              "internalType": "address",
              "name": "tokenIn",
              "type": "address"
            },
            {
              "internalType": "address",
              "name": "tokenOut",
              "type": "address"
            },
            {
              "internalType": "uint256",
              "name": "amountOut",
              "type": "uint256"
            }
          ],
          "internalType": "struct TradescrowRouterUpgradeable.Query",
          "name": "",
          "type": "tuple"
        }
      ],
      "stateMutability": "view",
      "type": "function"
    },
    {
      "inputs": [
        {
          "internalType": "uint256",
          "name": "_amountIn",
          "type": "uint256"
        },
        {
          "internalType": "address",
          "name": "_tokenIn",
          "type": "address"
        },
        {
          "internalType": "address",
          "name": "_tokenOut",
          "type": "address"
        }
      ],
      "name": "queryNoSplit",
      "outputs": [
        {
          "components": [
            {
              "internalType": "address",
              "name": "adapter",
              "type": "address"
            },
            {
              "internalType": "address",
              "name": "tokenIn",
              "type": "address"
            },
            {
              "internalType": "address",
              "name": "tokenOut",
              "type": "address"
            },
            {
              "internalType": "uint256",
              "name": "amountOut",
              "type": "uint256"
            }
          ],
          "internalType": "struct TradescrowRouterUpgradeable.Query",
          "name": "",
          "type": "tuple"
        }
      ],
      "stateMutability": "view",
      "type": "function"
    },
    {
      "inputs": [
        {
          "internalType": "address",
          "name": "_tokenAddress",
          "type": "address"
        },
        {
          "internalType": "uint256",
          "name": "_tokenAmount",
          "type": "uint256"
        }
      ],
      "name": "recoverERC20",
      "outputs": [],
      "stateMutability": "nonpayable",
      "type": "function"
    },
    {
      "inputs": [
        {
          "internalType": "uint256",
          "name": "_amount",
          "type": "uint256"
        }
      ],
      "name": "recoverNATIVE",
      "outputs": [],
      "stateMutability": "nonpayable",
      "type": "function"
    },
    {
      "inputs": [
        {
          "internalType": "address",
          "name": "adapter",
          "type": "address"
        }
      ],
      "name": "removeAdapter",
      "outputs": [],
      "stateMutability": "nonpayable",
      "type": "function"
    },
    {
      "inputs": [
        {
          "internalType": "address[]",
          "name": "adapters",
          "type": "address[]"
        }
      ],
      "name": "removeAdapters",
      "outputs": [],
      "stateMutability": "nonpayable",
      "type": "function"
    },
    {
      "inputs": [
        {
          "internalType": "address",
          "name": "trustedToken",
          "type": "address"
        }
      ],
      "name": "removeTrustedToken",
      "outputs": [],
      "stateMutability": "nonpayable",
      "type": "function"
    },
    {
      "inputs": [
        {
          "internalType": "address[]",
          "name": "trustedTokens",
          "type": "address[]"
        }
      ],
      "name": "removeTrustedTokens",
      "outputs": [],
      "stateMutability": "nonpayable",
      "type": "function"
    },
    {
      "inputs": [
        {
          "internalType": "bytes32",
          "name": "role",
          "type": "bytes32"
        },
        {
          "internalType": "address",
          "name": "account",
          "type": "address"
        }
      ],
      "name": "renounceRole",
      "outputs": [],
      "stateMutability": "nonpayable",
      "type": "function"
    },
    {
      "inputs": [
        {
          "internalType": "bytes32",
          "name": "role",
          "type": "bytes32"
        },
        {
          "internalType": "address",
          "name": "account",
          "type": "address"
        }
      ],
      "name": "revokeRole",
      "outputs": [],
      "stateMutability": "nonpayable",
      "type": "function"
    },
    {
      "inputs": [
        {
          "internalType": "uint256",
          "name": "_fee",
          "type": "uint256"
        }
      ],
      "name": "setMinFee",
      "outputs": [],
      "stateMutability": "nonpayable",
      "type": "function"
    },
    {
      "inputs": [
        {
          "internalType": "address",
          "name": "treasury",
          "type": "address"
        }
      ],
      "name": "setTreasury",
      "outputs": [],
      "stateMutability": "nonpayable",
      "type": "function"
    },
    {
      "inputs": [
        {
          "internalType": "bytes4",
          "name": "interfaceId",
          "type": "bytes4"
        }
      ],
      "name": "supportsInterface",
      "outputs": [
        {
          "internalType": "bool",
          "name": "",
          "type": "bool"
        }
      ],
      "stateMutability": "view",
      "type": "function"
    },
    {
      "inputs": [
        {
          "components": [
            {
              "internalType": "uint256",
              "name": "amountIn",
              "type": "uint256"
            },
            {
              "internalType": "uint256",
              "name": "amountOut",
              "type": "uint256"
            },
            {
              "internalType": "address[]",
              "name": "path",
              "type": "address[]"
            },
            {
              "internalType": "address[]",
              "name": "adapters",
              "type": "address[]"
            }
          ],
          "internalType": "struct TradescrowRouterUpgradeable.Trade",
          "name": "_trade",
          "type": "tuple"
        },
        {
          "internalType": "address",
          "name": "_to",
          "type": "address"
        },
        {
          "internalType": "uint256",
          "name": "_fee",
          "type": "uint256"
        }
      ],
      "name": "swapNoSplit",
      "outputs": [],
      "stateMutability": "nonpayable",
      "type": "function"
    },
    {
      "inputs": [
        {
          "components": [
            {
              "internalType": "uint256",
              "name": "amountIn",
              "type": "uint256"
            },
            {
              "internalType": "uint256",
              "name": "amountOut",
              "type": "uint256"
            },
            {
              "internalType": "address[]",
              "name": "path",
              "type": "address[]"
            },
            {
              "internalType": "address[]",
              "name": "adapters",
              "type": "address[]"
            }
          ],
          "internalType": "struct TradescrowRouterUpgradeable.Trade",
          "name": "_trade",
          "type": "tuple"
        },
        {
          "internalType": "address",
          "name": "_to",
          "type": "address"
        },
        {
          "internalType": "uint256",
          "name": "_fee",
          "type": "uint256"
        }
      ],
      "name": "swapNoSplitFromNATIVE",
      "outputs": [],
      "stateMutability": "payable",
      "type": "function"
    },
    {
      "inputs": [
        {
          "components": [
            {
              "internalType": "uint256",
              "name": "amountIn",
              "type": "uint256"
            },
            {
              "internalType": "uint256",
              "name": "amountOut",
              "type": "uint256"
            },
            {
              "internalType": "address[]",
              "name": "path",
              "type": "address[]"
            },
            {
              "internalType": "address[]",
              "name": "adapters",
              "type": "address[]"
            }
          ],
          "internalType": "struct TradescrowRouterUpgradeable.Trade",
          "name": "_trade",
          "type": "tuple"
        },
        {
          "internalType": "address",
          "name": "_to",
          "type": "address"
        },
        {
          "internalType": "uint256",
          "name": "_fee",
          "type": "uint256"
        }
      ],
      "name": "swapNoSplitToNATIVE",
      "outputs": [],
      "stateMutability": "nonpayable",
      "type": "function"
    },
    {
      "inputs": [
        {
          "components": [
            {
              "internalType": "uint256",
              "name": "amountIn",
              "type": "uint256"
            },
            {
              "internalType": "uint256",
              "name": "amountOut",
              "type": "uint256"
            },
            {
              "internalType": "address[]",
              "name": "path",
              "type": "address[]"
            },
            {
              "internalType": "address[]",
              "name": "adapters",
              "type": "address[]"
            }
          ],
          "internalType": "struct TradescrowRouterUpgradeable.Trade",
          "name": "_trade",
          "type": "tuple"
        },
        {
          "internalType": "address",
          "name": "_to",
          "type": "address"
        },
        {
          "internalType": "uint256",
          "name": "_fee",
          "type": "uint256"
        },
        {
          "internalType": "uint256",
          "name": "_deadline",
          "type": "uint256"
        },
        {
          "internalType": "uint8",
          "name": "_v",
          "type": "uint8"
        },
        {
          "internalType": "bytes32",
          "name": "_r",
          "type": "bytes32"
        },
        {
          "internalType": "bytes32",
          "name": "_s",
          "type": "bytes32"
        }
      ],
      "name": "swapNoSplitToNATIVEWithPermit",
      "outputs": [],
      "stateMutability": "nonpayable",
      "type": "function"
    },
    {
      "inputs": [
        {
          "components": [
            {
              "internalType": "uint256",
              "name": "amountIn",
              "type": "uint256"
            },
            {
              "internalType": "uint256",
              "name": "amountOut",
              "type": "uint256"
            },
            {
              "internalType": "address[]",
              "name": "path",
              "type": "address[]"
            },
            {
              "internalType": "address[]",
              "name": "adapters",
              "type": "address[]"
            }
          ],
          "internalType": "struct TradescrowRouterUpgradeable.Trade",
          "name": "_trade",
          "type": "tuple"
        },
        {
          "internalType": "address",
          "name": "_to",
          "type": "address"
        },
        {
          "internalType": "uint256",
          "name": "_fee",
          "type": "uint256"
        },
        {
          "internalType": "uint256",
          "name": "_deadline",
          "type": "uint256"
        },
        {
          "internalType": "uint8",
          "name": "_v",
          "type": "uint8"
        },
        {
          "internalType": "bytes32",
          "name": "_r",
          "type": "bytes32"
        },
        {
          "internalType": "bytes32",
          "name": "_s",
          "type": "bytes32"
        }
      ],
      "name": "swapNoSplitWithPermit",
      "outputs": [],
      "stateMutability": "nonpayable",
      "type": "function"
    },
    {
      "inputs": [],
      "name": "trustedTokensCount",
      "outputs": [
        {
          "internalType": "uint256",
          "name": "",
          "type": "uint256"
        }
      ],
      "stateMutability": "view",
      "type": "function"
    },
    {
      "stateMutability": "payable",
      "type": "receive"
    }
  ],
  "bytecode": "0x60806040523480156200001157600080fd5b50600062000020600162000087565b9050801562000039576000805461ff0019166101001790555b801562000080576000805461ff0019169055604051600181527f7f26b83ff96e1f2b6a682f133852f6798a09c465da95921460cefb38474024989060200160405180910390a15b50620001a8565b60008054610100900460ff161562000120578160ff166001148015620000c05750620000be306200019960201b620017651760201c565b155b620001185760405162461bcd60e51b815260206004820152602e602482015260008051602062003fcb83398151915260448201526d191e481a5b9a5d1a585b1a5e995960921b60648201526084015b60405180910390fd5b506000919050565b60005460ff8084169116106200017f5760405162461bcd60e51b815260206004820152602e602482015260008051602062003fcb83398151915260448201526d191e481a5b9a5d1a585b1a5e995960921b60648201526084016200010f565b506000805460ff191660ff92909216919091179055600190565b6001600160a01b03163b151590565b613e1380620001b86000396000f3fe6080604052600436106102345760003560e01c8063809356aa1161012e578063b954a351116100ab578063dede7f151161006f578063dede7f1514610702578063df5e3a7514610722578063e72ef11114610742578063f0f4426014610762578063fa2dd8fd1461078257600080fd5b8063b954a35114610679578063bece95c314610699578063c2c52820146106ac578063d547741f146106cc578063d73792a9146106ec57600080fd5b80639e1e94bf116100f25780639e1e94bf146105be578063a0cf0aea146105de578063a217fddf146105f3578063a3f4df7e14610608578063b381cf401461065157600080fd5b8063809356aa146104e95780638129fc1c146105095780638980f11f1461051e57806391d148541461053e57806392f5d88a1461055e57600080fd5b80634c09cf4e116101bc5780636bf2df86116101805780636bf2df861461046957806375d199471461048957806376c7a3c7146104a957806376ebe69c146104bf5780637c7a561b146104d457600080fd5b80634c09cf4e146103bc578063585cd34b146103e957806360d54d411461040957806364eb7ada1461042957806367458cca1461044957600080fd5b80632f2ff15d116102035780632f2ff15d1461031857806331ac99201461033a57806334d5a8f71461035a57806336568abe1461037a57806347e633801461039a57600080fd5b806301ffc9a714610240578063061b15e714610275578063248a9ca3146102a25780632d2c5565146102e057600080fd5b3661023b57005b600080fd5b34801561024c57600080fd5b5061026061025b366004613417565b6107a2565b60405190151581526020015b60405180910390f35b34801561028157600080fd5b50610295610290366004613458565b6107d9565b60405161026c919061351a565b3480156102ae57600080fd5b506102d26102bd366004613589565b60009081526065602052604090206001015490565b60405190815260200161026c565b3480156102ec57600080fd5b5060c654610300906001600160a01b031681565b6040516001600160a01b03909116815260200161026c565b34801561032457600080fd5b506103386103333660046135a2565b61095b565b005b34801561034657600080fd5b50610338610355366004613589565b610985565b34801561036657600080fd5b506103386103753660046135e6565b6109e0565b34801561038657600080fd5b506103386103953660046135a2565b610ada565b3480156103a657600080fd5b506102d2600080516020613dbe83398151915281565b3480156103c857600080fd5b506103dc6103d736600461363d565b610b58565b60405161026c9190613681565b3480156103f557600080fd5b506103386104043660046136e2565b610c40565b34801561041557600080fd5b506103386104243660046136e2565b610c9c565b34801561043557600080fd5b50610338610444366004613713565b610cbf565b34801561045557600080fd5b50610338610464366004613713565b610d23565b34801561047557600080fd5b506103386104843660046135e6565b610d87565b34801561049557600080fd5b506103386104a43660046137e9565b610d93565b3480156104b557600080fd5b506102d260c55481565b3480156104cb57600080fd5b506102d2610e49565b3480156104e057600080fd5b506102d2610e5a565b3480156104f557600080fd5b506102d261050436600461386e565b610e66565b34801561051557600080fd5b50610338610f03565b34801561052a57600080fd5b506103386105393660046138bb565b610fb1565b34801561054a57600080fd5b506102606105593660046135a2565b611045565b34801561056a57600080fd5b5061057e6105793660046138e5565b611070565b6040805182516001600160a01b0390811682526020808501518216908301528383015116918101919091526060918201519181019190915260800161026c565b3480156105ca57600080fd5b506103386105d93660046137e9565b611207565b3480156105ea57600080fd5b50610300600081565b3480156105ff57600080fd5b506102d2600081565b34801561061457600080fd5b506106446040518060400160405280601081526020016f2a3930b232b9b1b937bba937baba32b960811b81525081565b60405161026c91906139af565b34801561065d57600080fd5b5061030073cf664087a5bb0237a0bad6742852ec6c8d69a27a81565b34801561068557600080fd5b506103386106943660046136e2565b6112b4565b6103386106a73660046135e6565b611303565b3480156106b857600080fd5b506103386106c7366004613589565b6113d2565b3480156106d857600080fd5b506103386106e73660046135a2565b611472565b3480156106f857600080fd5b506102d261271081565b34801561070e57600080fd5b5061057e61071d3660046139e2565b611497565b34801561072e57600080fd5b5061033861073d366004613713565b61160d565b34801561074e57600080fd5b5061033861075d366004613713565b611671565b34801561076e57600080fd5b5061033861077d3660046136e2565b6116d5565b34801561078e57600080fd5b5061033861079d3660046136e2565b611742565b60006001600160e01b03198216637965db0b60e01b14806107d357506301ffc9a760e01b6001600160e01b03198316145b92915050565b6108046040518060800160405280606081526020016060815260200160608152602001600081525090565b6000831180156108145750600583105b6108395760405162461bcd60e51b815260040161083090613a1e565b60405180910390fd5b6108646040518060800160405280606081526020016060815260200160608152602001600081525090565b61086d87611774565b81526108816001600160a01b038716611774565b604082015260006108b1670de0b6b3a764000073cf664087a5bb0237a0bad6742852ec6c8d69a27a886002610b58565b90506000816040015151600014610905576108d0633b9aca0086613a77565b825180516108e090600190613a99565b815181106108f0576108f0613ab0565b60200260200101516109029190613ac6565b90505b61091389898989878661179e565b925082602001515160001415610945576040805160208082018352600080835291865282519081018352908152908401525b61094e83611ab0565b9998505050505050505050565b60008281526065602052604090206001015461097681611b2b565b6109808383611b35565b505050565b600080516020613dbe83398151915261099d81611b2b565b60c582905560408051838152602081018490527f4bb8a6184424e4bb853a4836042f5a726e4e710873989bfc6abdab19966f5b7091015b60405180910390a15050565b73cf664087a5bb0237a0bad6742852ec6c8d69a27a610a026040850185613ae5565b6001610a116040880188613ae5565b610a1c929150613a99565b818110610a2b57610a2b613ab0565b9050602002016020810190610a4091906136e2565b6001600160a01b031614610aaf5760405162461bcd60e51b815260206004820152603060248201527f54726164657363726f77526f757465723a2050617468206e6565647320746f2060448201526f656e64207769746820574e415449564560801b6064820152608401610830565b6000610abd84333085611bbb565b9050610ac8816122c2565b610ad46000828561232a565b50505050565b6001600160a01b0381163314610b4a5760405162461bcd60e51b815260206004820152602f60248201527f416363657373436f6e74726f6c3a2063616e206f6e6c792072656e6f756e636560448201526e103937b632b9903337b91039b2b63360891b6064820152608401610830565b610b548282612392565b5050565b610b7c60405180606001604052806060815260200160608152602001606081525090565b600082118015610b8c5750600582105b610ba85760405162461bcd60e51b815260040161083090613a1e565b610bcc60405180606001604052806060815260200160608152602001606081525090565b610bd586611774565b8152610be96001600160a01b038616611774565b6040820152610bfb86868686856123f9565b905080602001515160001415610c2d576040805160208082018352600080835291845282519081018352908152908201525b610c36816125a6565b9695505050505050565b600080516020613dbe833981519152610c5881611b2b565b610c6360c98361260e565b507febf7325f48e05e5e38809c69f8b02a7c907ed31d8768e6c2d841b1296a9225fe610c8f60c9612623565b6040516109d49190613b36565b600080516020613dbe833981519152610cb481611b2b565b610c6360c983612630565b600080516020613dbe833981519152610cd781611b2b565b60005b8251811015610c6357610d10838281518110610cf857610cf8613ab0565b602002602001015160c961260e90919063ffffffff16565b5080610d1b81613b83565b915050610cda565b600080516020613dbe833981519152610d3b81611b2b565b60005b8251811015610c6357610d74838281518110610d5c57610d5c613ab0565b602002602001015160c961263090919063ffffffff16565b5080610d7f81613b83565b915050610d3e565b610ad483338484611bbb565b610da06040880188613ae5565b6000818110610db157610db1613ab0565b9050602002016020810190610dc691906136e2565b6001600160a01b031663d505accf336040516001600160e01b031960e084901b168152610e03919030908c35908a908a908a908a90600401613b9e565b600060405180830381600087803b158015610e1d57600080fd5b505af1158015610e31573d6000803e3d6000fd5b50505050610e40878787610d87565b50505050505050565b6000610e5560c7612645565b905090565b6000610e5560c9612645565b600080610e7760c960ff851661264f565b6040516377ccc49d60e11b8152600481018890526001600160a01b03878116602483015286811660448301529192509082169063ef99893a9060640160206040518083038186803b158015610ecb57600080fd5b505afa158015610edf573d6000803e3d6000fd5b505050506040513d601f19601f82011682018060405250810190610c369190613bdf565b6000610f0f600161265b565b90508015610f27576000805461ff0019166101001790555b610f2f6126e8565b610f3a600033611b35565b610f52600080516020613dbe83398151915233611b35565b610f5b336116d5565b610f63612755565b600060c5558015610fae576000805461ff0019169055604051600181527f7f26b83ff96e1f2b6a682f133852f6798a09c465da95921460cefb38474024989060200160405180910390a15b50565b600080516020613dbe833981519152610fc981611b2b565b60008211610fe95760405162461bcd60e51b815260040161083090613bf8565b610ffd6001600160a01b0384163384612776565b826001600160a01b03167f8c1256b8896378cd5044f80c202f9772b9d77dc85c8a6eb51967210b09bfaa288360405161103891815260200190565b60405180910390a2505050565b60009182526065602090815260408084206001600160a01b0393909316845291905290205460ff1690565b60408051608081018252600080825260208201819052918101829052606081019190915260408051608081018252600080825260208201819052918101829052606081019190915260005b60ff81168411156111fc57600061110086868460ff168181106110e0576110e0613ab0565b90506020020160208101906110f59190613c3c565b60c99060ff1661264f565b6040516377ccc49d60e11b8152600481018b90526001600160a01b038a81166024830152898116604483015291925060009183169063ef99893a9060640160206040518083038186803b15801561115657600080fd5b505afa15801561116a573d6000803e3d6000fd5b505050506040513d601f19601f8201168201806040525081019061118e9190613bdf565b905060ff831615806111a35750836060015181115b156111e7576040518060800160405280836001600160a01b031681526020018a6001600160a01b03168152602001896001600160a01b031681526020018281525093505b505080806111f490613c57565b9150506110bb565b509695505050505050565b6112146040880188613ae5565b600081811061122557611225613ab0565b905060200201602081019061123a91906136e2565b6001600160a01b031663d505accf336040516001600160e01b031960e084901b168152611277919030908c35908a908a908a908a90600401613b9e565b600060405180830381600087803b15801561129157600080fd5b505af11580156112a5573d6000803e3d6000fd5b50505050610e408787876109e0565b600080516020613dbe8339815191526112cc81611b2b565b6112d760c783612630565b507f658ff1688002926d8f426cb10c052ec29003f50042df9652d8613484c1a58647610c8f60c7612623565b73cf664087a5bb0237a0bad6742852ec6c8d69a27a6113256040850185613ae5565b600081811061133657611336613ab0565b905060200201602081019061134b91906136e2565b6001600160a01b0316146113bc5760405162461bcd60e51b815260206004820152603260248201527f54726164657363726f77526f757465723a2050617468206e6565647320746f20604482015271626567696e207769746820574e415449564560701b6064820152608401610830565b6113c683356127d9565b610ad483308484611bbb565b600080516020613dbe8339815191526113ea81611b2b565b6000821161140a5760405162461bcd60e51b815260040161083090613bf8565b604051339083156108fc029084906000818181858888f19350505050158015611437573d6000803e3d6000fd5b506040518281526000907f8c1256b8896378cd5044f80c202f9772b9d77dc85c8a6eb51967210b09bfaa289060200160405180910390a25050565b60008281526065602052604090206001015461148d81611b2b565b6109808383612392565b60408051608081018252600080825260208201819052918101829052606081019190915260408051608081018252600080825260208201819052918101829052606081019190915260005b6114ec60c9612645565b8160ff16101561160257600061150660c960ff841661264f565b6040516377ccc49d60e11b8152600481018990526001600160a01b038881166024830152878116604483015291925060009183169063ef99893a9060640160206040518083038186803b15801561155c57600080fd5b505afa158015611570573d6000803e3d6000fd5b505050506040513d601f19601f820116820180604052508101906115949190613bdf565b905060ff831615806115a95750836060015181115b156115ed576040518060800160405280836001600160a01b03168152602001886001600160a01b03168152602001876001600160a01b031681526020018281525093505b505080806115fa90613c57565b9150506114e2565b5090505b9392505050565b600080516020613dbe83398151915261162581611b2b565b60005b82518110156112d75761165e83828151811061164657611646613ab0565b602002602001015160c761263090919063ffffffff16565b508061166981613b83565b915050611628565b600080516020613dbe83398151915261168981611b2b565b60005b82518110156112d7576116c28382815181106116aa576116aa613ab0565b602002602001015160c761260e90919063ffffffff16565b50806116cd81613b83565b91505061168c565b600080516020613dbe8339815191526116ed81611b2b565b60c680546001600160a01b0319166001600160a01b0384169081179091556040805182815260208101929092527f2ac12ebf7dfd56173c73b2e43941f0faed1c3f7fb6f959191a4ab4bdd3d32e2191016109d4565b600080516020613dbe83398151915261175a81611b2b565b6112d760c78361260e565b6001600160a01b03163b151590565b60408051602080825281830190925260609160208201818036833750505060208101929092525090565b6117c96040518060800160405280606081526020016060815260200160608152602001600081525090565b60006117d484612844565b90506000806117e48a8a8a611497565b9050806060015160001461188d57600081600001516001600160a01b03166369cff80d6040518163ffffffff1660e01b815260040160206040518083038186803b15801561183157600080fd5b505afa158015611845573d6000803e3d6000fd5b505050506040513d601f19601f820116820180604052508101906118699190613bdf565b905061188484836060015184600001518560400151856128a7565b81606001519250505b6001871180156118b857506118a3600288613a99565b60208760200151516118b59190613a77565b11155b15611aa25760005b6118ca60c7612645565b811015611aa0576118dc60c78b612925565b156118e657611a8e565b60006118f88c8c61071d60c78661264f565b905080606001516000141561190d5750611a8e565b600061191889612844565b9050600082600001516001600160a01b03166369cff80d6040518163ffffffff1660e01b815260040160206040518083038186803b15801561195957600080fd5b505afa15801561196d573d6000803e3d6000fd5b505050506040513d601f19601f820116820180604052508101906119919190613bdf565b90506119ac82846060015185600001518660400151856128a7565b60608301516119c9906119c060c78761264f565b8e8e868e61179e565b604081015180519193506000916119e09190612947565b835180519192506000916119f49190612947565b9050816001600160a01b03168e6001600160a01b0316148015611a1657508781115b15611a8857886060015184606001511115611a81576000633b9aca008a606001518660600151611a469190613a99565b611a50908e613ac6565b611a5a9190613a77565b90506000611a688a84613a99565b905080821115611a7e5750505050505050611a8e565b50505b8097508398505b50505050505b80611a9881613b83565b9150506118c0565b505b509098975050505050505050565b611adb6040518060800160405280606081526020016060815260200160608152602001600081525090565b6040518060800160405280611af38460000151612953565b8152602001611b058460200151612a10565b8152602001611b178460400151612a10565b815260200183606001518152509050919050565b610fae8133612ac0565b611b3f8282611045565b610b545760008281526065602090815260408083206001600160a01b03851684529091529020805460ff19166001179055611b773390565b6001600160a01b0316816001600160a01b0316837f2f8788117e7eff1d82e926ec794901d17c78024a50270940304540a733656f0d60405160405180910390a45050565b600080611bcb6040870187613ae5565b905067ffffffffffffffff811115611be557611be56136fd565b604051908082528060200260200182016040528015611c0e578160200160208202803683370190505b5090506000831180611c225750600060c554115b15611cde57611c32863584612b24565b81600081518110611c4557611c45613ab0565b602002602001018181525050611cd98560c660009054906101000a90046001600160a01b031683600081518110611c7e57611c7e613ab0565b60200260200101518960000135611c959190613a99565b611ca260408b018b613ae5565b6000818110611cb357611cb3613ab0565b9050602002016020810190611cc891906136e2565b6001600160a01b0316929190612ba4565b611d03565b856000013581600081518110611cf657611cf6613ab0565b6020026020010181815250505b611d6585611d146060890189613ae5565b6000818110611d2557611d25613ab0565b9050602002016020810190611d3a91906136e2565b83600081518110611d4d57611d4d613ab0565b6020026020010151898060400190611ca29190613ae5565b60005b611d756060880188613ae5565b9050811015611f0757611d8b6060880188613ae5565b82818110611d9b57611d9b613ab0565b9050602002016020810190611db091906136e2565b6001600160a01b031663ef99893a838381518110611dd057611dd0613ab0565b6020026020010151898060400190611de89190613ae5565b85818110611df857611df8613ab0565b9050602002016020810190611e0d91906136e2565b611e1a60408c018c613ae5565b611e25876001613c77565b818110611e3457611e34613ab0565b9050602002016020810190611e4991906136e2565b6040516001600160e01b031960e086901b16815260048101939093526001600160a01b03918216602484015216604482015260640160206040518083038186803b158015611e9657600080fd5b505afa158015611eaa573d6000803e3d6000fd5b505050506040513d601f19601f82011682018060405250810190611ece9190613bdf565b82611eda836001613c77565b81518110611eea57611eea613ab0565b602090810291909101015280611eff81613b83565b915050611d68565b5085602001358160018351611f1c9190613a99565b81518110611f2c57611f2c613ab0565b60200260200101511015611f975760405162461bcd60e51b815260206004820152602c60248201527f54726164657363726f77526f757465723a20496e73756666696369656e74206f60448201526b1d5d1c1d5d08185b5bdd5b9d60a21b6064820152608401610830565b60005b611fa76060880188613ae5565b90508110156121935760006001611fc160608a018a613ae5565b611fcc929150613a99565b8210611fd85785612014565b611fe56060890189613ae5565b611ff0846001613c77565b818110611fff57611fff613ab0565b905060200201602081019061201491906136e2565b90506120236060890189613ae5565b8381811061203357612033613ab0565b905060200201602081019061204891906136e2565b6001600160a01b031663eab90da684848151811061206857612068613ab0565b60200260200101518585600161207e9190613c77565b8151811061208e5761208e613ab0565b60200260200101518b80604001906120a69190613ae5565b878181106120b6576120b6613ab0565b90506020020160208101906120cb91906136e2565b6120d860408e018e613ae5565b6120e3896001613c77565b8181106120f2576120f2613ab0565b905060200201602081019061210791906136e2565b6040516001600160e01b031960e087901b168152600481019490945260248401929092526001600160a01b03908116604484015290811660648301528416608482015260a401600060405180830381600087803b15801561216757600080fd5b505af115801561217b573d6000803e3d6000fd5b5050505050808061218b90613b83565b915050611f9a565b506121a16040870187613ae5565b60016121b060408a018a613ae5565b6121bb929150613a99565b8181106121ca576121ca613ab0565b90506020020160208101906121df91906136e2565b6001600160a01b03166121f56040880188613ae5565b600081811061220657612206613ab0565b905060200201602081019061221b91906136e2565b6001600160a01b03167f213a3805012a455c1960b9621909809986658c30f76395cc0967179d234b1d72886000013584600186516122599190613a99565b8151811061226957612269613ab0565b6020026020010151604051612288929190918252602082015260400190565b60405180910390a3806001825161229f9190613a99565b815181106122af576122af613ab0565b6020026020010151915050949350505050565b604051632e1a7d4d60e01b81526004810182905273cf664087a5bb0237a0bad6742852ec6c8d69a27a90632e1a7d4d90602401600060405180830381600087803b15801561230f57600080fd5b505af1158015612323573d6000803e3d6000fd5b5050505050565b306001600160a01b03821614610980576001600160a01b03831661237e576040516001600160a01b0382169083156108fc029084906000818181858888f19350505050158015610ad4573d6000803e3d6000fd5b6109806001600160a01b0384168284612776565b61239c8282611045565b15610b545760008281526065602090815260408083206001600160a01b0385168085529252808320805460ff1916905551339285917ff6391f5c32d9c69d2a47ea670b442974b53935d1edc7fd64eb21e047a839171b9190a45050565b61241d60405180606001604052806060815260200160608152602001606081525090565b600061242883612bdc565b9050600080612438898989611497565b905080606001516000146124665761245e83826060015183600001518460400151612c24565b806060015191505b600186118015612491575061247c600287613a99565b602086602001515161248e9190613a77565b11155b156125995760005b6124a360c7612645565b811015612597576124b560c78a612925565b156124bf57612585565b60006124d18b8b61071d60c78661264f565b90508060600151600014156124e65750612585565b60006124f188612bdc565b905061250b81836060015184600001518560400151612c24565b60608201516125279061251f60c78661264f565b8c8c856123f9565b6040810151805191925060009161253e9190612947565b825180519192506000916125529190612947565b9050816001600160a01b03168c6001600160a01b031614801561257457508681115b15612580578096508297505b505050505b8061258f81613b83565b915050612499565b505b5090979650505050505050565b6125ca60405180606001604052806060815260200160608152602001606081525090565b60405180606001604052806125e28460000151612953565b81526020016125f48460200151612a10565b81526020016126068460400151612a10565b905292915050565b6000611606836001600160a01b038416612c8d565b6060600061160683612d80565b6000611606836001600160a01b038416612ddc565b60006107d3825490565b60006116068383612e2b565b60008054610100900460ff16156126a2578160ff16600114801561267e5750303b155b61269a5760405162461bcd60e51b815260040161083090613c8f565b506000919050565b60005460ff8084169116106126c95760405162461bcd60e51b815260040161083090613c8f565b506000805460ff191660ff92909216919091179055600190565b919050565b600054610100900460ff166127535760405162461bcd60e51b815260206004820152602b60248201527f496e697469616c697a61626c653a20636f6e7472616374206973206e6f74206960448201526a6e697469616c697a696e6760a81b6064820152608401610830565b565b61275373cf664087a5bb0237a0bad6742852ec6c8d69a27a80600019612e55565b6040516001600160a01b03831660248201526044810182905261098090849063a9059cbb60e01b906064015b60408051601f198184030181529190526020810180516001600160e01b03166001600160e01b031990931692909217909152612f79565b73cf664087a5bb0237a0bad6742852ec6c8d69a27a6001600160a01b031663d0e30db0826040518263ffffffff1660e01b81526004016000604051808303818588803b15801561282857600080fd5b505af115801561283c573d6000803e3d6000fd5b505050505050565b61286f6040518060800160405280606081526020016060815260200160608152602001600081525090565b604051806080016040528083600001518152602001836020015181526020018360400151815260200183606001518152509050919050565b6128c76128bc836001600160a01b0316611774565b60408701519061304b565b60408601526128e06128d885611774565b86519061304b565b85526129026128f76001600160a01b038516611774565b60208701519061304b565b602086015260608501805182919061291b908390613c77565b9052505050505050565b6001600160a01b03811660009081526001830160205260408120541515611606565b60006116068383015190565b60606000602083516129659190613a77565b905060008167ffffffffffffffff811115612982576129826136fd565b6040519080825280602002602001820160405280156129ab578160200160208202803683370190505b50905060005b82811015612a08576129d96129c7826020613ac6565b6129d2906020613c77565b8690612947565b8282815181106129eb576129eb613ab0565b602090810291909101015280612a0081613b83565b9150506129b1565b509392505050565b6060600060208351612a229190613a77565b905060008167ffffffffffffffff811115612a3f57612a3f6136fd565b604051908082528060200260200182016040528015612a68578160200160208202803683370190505b50905060005b82811015612a0857612a846129c7826020613ac6565b828281518110612a9657612a96613ab0565b6001600160a01b039092166020928302919091019091015280612ab881613b83565b915050612a6e565b612aca8282611045565b610b5457612ae2816001600160a01b031660146130fa565b612aed8360206130fa565b604051602001612afe929190613cdd565b60408051601f198184030181529082905262461bcd60e51b8252610830916004016139af565b600060c554821015612b835760405162461bcd60e51b815260206004820152602260248201527f54726164657363726f77526f757465723a20496e73756666696369656e742066604482015261656560f01b6064820152608401610830565b612710612b908382613a99565b612b9a9085613ac6565b6116069190613a77565b6040516001600160a01b0380851660248301528316604482015260648101829052610ad49085906323b872dd60e01b906084016127a2565b612c0060405180606001604052806060815260200160608152602001606081525090565b50604080516060810182528251815260208084015190820152918101519082015290565b612c44612c39826001600160a01b0316611774565b60408601519061304b565b6040850152612c5d612c5584611774565b85519061304b565b8452612c7f612c746001600160a01b038416611774565b60208601519061304b565b846020018190525050505050565b60008181526001830160205260408120548015612d76576000612cb1600183613a99565b8554909150600090612cc590600190613a99565b9050818114612d2a576000866000018281548110612ce557612ce5613ab0565b9060005260206000200154905080876000018481548110612d0857612d08613ab0565b6000918252602080832090910192909255918252600188019052604090208390555b8554869080612d3b57612d3b613d52565b6001900381819060005260206000200160009055905585600101600086815260200190815260200160002060009055600193505050506107d3565b60009150506107d3565b606081600001805480602002602001604051908101604052809291908181526020018280548015612dd057602002820191906000526020600020905b815481526020019060010190808311612dbc575b50505050509050919050565b6000818152600183016020526040812054612e23575081546001818101845560008481526020808220909301849055845484825282860190935260409020919091556107d3565b5060006107d3565b6000826000018281548110612e4257612e42613ab0565b9060005260206000200154905092915050565b801580612ede5750604051636eb1769f60e11b81523060048201526001600160a01b03838116602483015284169063dd62ed3e9060440160206040518083038186803b158015612ea457600080fd5b505afa158015612eb8573d6000803e3d6000fd5b505050506040513d601f19601f82011682018060405250810190612edc9190613bdf565b155b612f495760405162461bcd60e51b815260206004820152603660248201527f5361666545524332303a20617070726f76652066726f6d206e6f6e2d7a65726f60448201527520746f206e6f6e2d7a65726f20616c6c6f77616e636560501b6064820152608401610830565b6040516001600160a01b03831660248201526044810182905261098090849063095ea7b360e01b906064016127a2565b6000612fce826040518060400160405280602081526020017f5361666545524332303a206c6f772d6c6576656c2063616c6c206661696c6564815250856001600160a01b03166132969092919063ffffffff16565b8051909150156109805780806020019051810190612fec9190613d68565b6109805760405162461bcd60e51b815260206004820152602a60248201527f5361666545524332303a204552433230206f7065726174696f6e20646964206e6044820152691bdd081cdd58d8d9595960b21b6064820152608401610830565b81518151606091906000906130609083613c77565b9050600060208651601f6130749190613c77565b61307e9190613a77565b9050600060208651601f6130929190613c77565b61309c9190613a77565b905060405183815260005b838110156130c3576001016020810289810151908301526130a7565b5060005b828110156130e55760010160208102888101519087018301526130c7565b50928301602001604052509095945050505050565b60606000613109836002613ac6565b613114906002613c77565b67ffffffffffffffff81111561312c5761312c6136fd565b6040519080825280601f01601f191660200182016040528015613156576020820181803683370190505b509050600360fc1b8160008151811061317157613171613ab0565b60200101906001600160f81b031916908160001a905350600f60fb1b816001815181106131a0576131a0613ab0565b60200101906001600160f81b031916908160001a90535060006131c4846002613ac6565b6131cf906001613c77565b90505b6001811115613247576f181899199a1a9b1b9c1cb0b131b232b360811b85600f166010811061320357613203613ab0565b1a60f81b82828151811061321957613219613ab0565b60200101906001600160f81b031916908160001a90535060049490941c9361324081613d8a565b90506131d2565b5083156116065760405162461bcd60e51b815260206004820181905260248201527f537472696e67733a20686578206c656e67746820696e73756666696369656e746044820152606401610830565b60606132a584846000856132ad565b949350505050565b60608247101561330e5760405162461bcd60e51b815260206004820152602660248201527f416464726573733a20696e73756666696369656e742062616c616e636520666f6044820152651c8818d85b1b60d21b6064820152608401610830565b6001600160a01b0385163b6133655760405162461bcd60e51b815260206004820152601d60248201527f416464726573733a2063616c6c20746f206e6f6e2d636f6e74726163740000006044820152606401610830565b600080866001600160a01b031685876040516133819190613da1565b60006040518083038185875af1925050503d80600081146133be576040519150601f19603f3d011682016040523d82523d6000602084013e6133c3565b606091505b50915091506133d38282866133de565b979650505050505050565b606083156133ed575081611606565b8251156133fd5782518084602001fd5b8160405162461bcd60e51b815260040161083091906139af565b60006020828403121561342957600080fd5b81356001600160e01b03198116811461160657600080fd5b80356001600160a01b03811681146126e357600080fd5b600080600080600060a0868803121561347057600080fd5b8535945061348060208701613441565b935061348e60408701613441565b94979396509394606081013594506080013592915050565b600081518084526020808501945080840160005b838110156134d6578151875295820195908201906001016134ba565b509495945050505050565b600081518084526020808501945080840160005b838110156134d65781516001600160a01b0316875295820195908201906001016134f5565b60208152600082516080602084015261353660a08401826134a6565b90506020840151601f198085840301604086015261355483836134e1565b925060408601519150808584030160608601525061357282826134e1565b915050606084015160808401528091505092915050565b60006020828403121561359b57600080fd5b5035919050565b600080604083850312156135b557600080fd5b823591506135c560208401613441565b90509250929050565b6000608082840312156135e057600080fd5b50919050565b6000806000606084860312156135fb57600080fd5b833567ffffffffffffffff81111561361257600080fd5b61361e868287016135ce565b93505061362d60208501613441565b9150604084013590509250925092565b6000806000806080858703121561365357600080fd5b8435935061366360208601613441565b925061367160408601613441565b9396929550929360600135925050565b60208152600082516060602084015261369d60808401826134a6565b90506020840151601f19808584030160408601526136bb83836134e1565b92506040860151915080858403016060860152506136d982826134e1565b95945050505050565b6000602082840312156136f457600080fd5b61160682613441565b634e487b7160e01b600052604160045260246000fd5b6000602080838503121561372657600080fd5b823567ffffffffffffffff8082111561373e57600080fd5b818501915085601f83011261375257600080fd5b813581811115613764576137646136fd565b8060051b604051601f19603f83011681018181108582111715613789576137896136fd565b6040529182528482019250838101850191888311156137a757600080fd5b938501935b828510156137cc576137bd85613441565b845293850193928501926137ac565b98975050505050505050565b803560ff811681146126e357600080fd5b600080600080600080600060e0888a03121561380457600080fd5b873567ffffffffffffffff81111561381b57600080fd5b6138278a828b016135ce565b97505061383660208901613441565b95506040880135945060608801359350613852608089016137d8565b925060a0880135915060c0880135905092959891949750929550565b6000806000806080858703121561388457600080fd5b8435935061389460208601613441565b92506138a260408601613441565b91506138b0606086016137d8565b905092959194509250565b600080604083850312156138ce57600080fd5b6138d783613441565b946020939093013593505050565b6000806000806000608086880312156138fd57600080fd5b8535945061390d60208701613441565b935061391b60408701613441565b9250606086013567ffffffffffffffff8082111561393857600080fd5b818801915088601f83011261394c57600080fd5b81358181111561395b57600080fd5b8960208260051b850101111561397057600080fd5b9699959850939650602001949392505050565b60005b8381101561399e578181015183820152602001613986565b83811115610ad45750506000910152565b60208152600082518060208401526139ce816040850160208701613983565b601f01601f19169190910160400192915050565b6000806000606084860312156139f757600080fd5b83359250613a0760208501613441565b9150613a1560408501613441565b90509250925092565b60208082526023908201527f54726164657363726f77526f757465723a20496e76616c6964206d61782d737460408201526265707360e81b606082015260800190565b634e487b7160e01b600052601160045260246000fd5b600082613a9457634e487b7160e01b600052601260045260246000fd5b500490565b600082821015613aab57613aab613a61565b500390565b634e487b7160e01b600052603260045260246000fd5b6000816000190483118215151615613ae057613ae0613a61565b500290565b6000808335601e19843603018112613afc57600080fd5b83018035915067ffffffffffffffff821115613b1757600080fd5b6020019150600581901b3603821315613b2f57600080fd5b9250929050565b6020808252825182820181905260009190848201906040850190845b81811015613b775783516001600160a01b031683529284019291840191600101613b52565b50909695505050505050565b6000600019821415613b9757613b97613a61565b5060010190565b6001600160a01b0397881681529590961660208601526040850193909352606084019190915260ff16608083015260a082015260c081019190915260e00190565b600060208284031215613bf157600080fd5b5051919050565b60208082526024908201527f54726164657363726f77526f757465723a204e6f7468696e6720746f2072656360408201526337bb32b960e11b606082015260800190565b600060208284031215613c4e57600080fd5b611606826137d8565b600060ff821660ff811415613c6e57613c6e613a61565b60010192915050565b60008219821115613c8a57613c8a613a61565b500190565b6020808252602e908201527f496e697469616c697a61626c653a20636f6e747261637420697320616c72656160408201526d191e481a5b9a5d1a585b1a5e995960921b606082015260800190565b7f416363657373436f6e74726f6c3a206163636f756e7420000000000000000000815260008351613d15816017850160208801613983565b7001034b99036b4b9b9b4b733903937b6329607d1b6017918401918201528351613d46816028840160208801613983565b01602801949350505050565b634e487b7160e01b600052603160045260246000fd5b600060208284031215613d7a57600080fd5b8151801515811461160657600080fd5b600081613d9957613d99613a61565b506000190190565b60008251613db3818460208701613983565b919091019291505056fe73e573f9566d61418a34d5de3ff49360f9c51fec37f7486551670290f6285daba2646970667358221220a2b2f61df51cdc314922fa24a407aa34e20b4c52cc75d53421315b7b31db6f9f64736f6c63430008090033496e697469616c697a61626c653a20636f6e747261637420697320616c726561",
  "linkReferences": {},
  "deployedLinkReferences": {}
}